:020000040800F2
:10000000005000205D3A0008253900083139000809
:10001000373900083D390008433900080000000066
:100020000000000000000000000000004939000846
:100030005539000800000000613900086D390008DA
:10004000A53A0008A53A0008A53A0008A53A000814
:10005000A53A0008A53A0008A53A0008A53A000804
:10006000A53A0008A53A0008A53A0008A53A0008F4
:10007000A53A0008A53A0008A53A0008A53A0008E4
:10008000A53A0008A53A0008A53A0008A53A0008D4
:10009000A53A0008A53A0008A53A0008A53A0008C4
:1000A000A53A0008A53A0008A53A0008A53A0008B4
:1000B000A53A0008A53A0008A53A0008A53A0008A4
:1000C000A53A0008A53A0008A53A0008A53A000894
:1000D000A53A000879390008A53A0008A53A0008B1
:1000E0008D390008A53A0008A53A00080000000074
:1000F0000000000000000000000000000000000000
:0C01000000000000000000005FF808F1A3
:1001100010B5054C237833B9044B13B10448AFF341
:1001200000800123237010BDDC01002000000000CE
:100130003855000808B5034B1BB103490348AFF31A
:10014000008008BD00000000E001002038550008D4
:1001500080F0004002E000BF81F0004142001FBF7C
:100160005FEA410392EA030F7FEA226C7FEA236C85
:100170006AD04FEA1262D2EB1363C1BFD21841407A
:1001800048404140B8BF5B42192B88BF704710F010
:10019000004F40F4000020F07F4018BF404211F0B3
:1001A000004F41F4000121F07F4118BF494292EA1B
:1001B000030F3FD0A2F1010241FA03FC10EB0C0047
:1001C000C3F1200301FA03F100F0004302D54942D4
:1001D00060EB4000B0F5000F13D3B0F1807F06D381
:1001E00040084FEA310102F10102FE2A51D2B1F179
:1001F000004F40EBC25008BF20F0010040EA03006E
:100200007047490040EB000010F4000FA2F101021A
:10021000EDD1B0FA80FCACF1080CB2EB0C0200FAA4
:100220000CF0AABF00EBC25052421843BCBFD040F2
:100230001843704792F0000F81F4000106BF80F46C
:1002400000000132013BB5E74FEA41037FEA226C2F
:1002500018BF7FEA236C21D092EA030F04D092F0FA
:10026000000F08BF0846704790EA010F1CBF00202E
:10027000704712F07F4F04D1400028BF40F000408B
:10028000704712F100723CBF00F50000704700F0AB
:10029000004343F0FE4040F4000070477FEA2262D2
:1002A00016BF08467FEA23630146420206BF5FEAA3
:1002B000412390EA010F40F4800070474FF00003A3
:1002C00004E000BF10F0004348BF40425FEA000C6A
:1002D00008BF704743F0964301464FF000001CE012
:1002E00050EA010208BF70474FF000030AE000BF68
:1002F00050EA010208BF704711F0004302D54042A6
:1003000061EB41015FEA010C02BF84460146002017
:1003100043F0B64308BFA3F18053A3F50003BCFA32
:100320008CF2083AA3EBC25310DB01FA02FC6344DF
:1003300000FA02FCC2F12002BCF1004F20FA02F2E6
:1003400043EB020008BF20F00100704702F12002D9
:1003500001FA02FCC2F1200250EA4C0021FA02F23A
:1003600043EB020008BF20EADC7070474FF0FF0C3F
:100370001CEAD0521EBF1CEAD15392EA0C0F93EA3A
:100380000C0F6FD01A4480EA010C400218BF5FEADC
:1003900041211ED04FF0006343EA501043EA51114F
:1003A000A0FB01310CF00040B1F5000F3EBF490049
:1003B00041EAD3715B0040EA010062F17F02FD2A4D
:1003C0001DD8B3F1004F40EBC25008BF20F0010030
:1003D000704790F0000F0CF0004C08BF49024CEA47
:1003E000502040EA51207F3AC2BFD2F1FF0340EAD9
:1003F000C250704740F400004FF00003013A5DDC4A
:1004000012F1190FDCBF00F000407047C2F100028A
:10041000410021FA02F1C2F1200200FA02FC5FEA77
:10042000310040F1000053EA4C0308BF20EADC70C1
:10043000704792F0000F00F0004C02BF400010F433
:10044000000F013AF9D040EA0C0093F0000F01F0E0
:10045000004C02BF490011F4000F013BF9D041EA02
:100460000C018FE70CEAD15392EA0C0F18BF93EA04
:100470000C0F0AD030F0004C18BF31F0004CD8D12E
:1004800080EA010000F00040704790F0000F17BFB5
:1004900090F0004F084691F0000F91F0004F14D0FB
:1004A00092EA0C0F01D142020FD193EA0C0F03D153
:1004B0004B0218BF084608D180EA010000F0004056
:1004C00040F0FE4040F40000704740F0FE4040F431
:1004D000400070474FF0FF0C1CEAD0521EBF1CEAD0
:1004E000D15392EA0C0F93EA0C0F69D0A2EB0302EE
:1004F00080EA010C49024FEA402037D04FF0805388
:1005000043EA111143EA10130CF000408B4238BF4C
:100510005B0042F17D024FF4000C8B4224BF5B1A5A
:1005200040EA0C00B3EB510F24BFA3EB510340EAA8
:100530005C00B3EB910F24BFA3EB910340EA9C0056
:10054000B3EBD10F24BFA3EBD10340EADC001B01C6
:1005500018BF5FEA1C1CE0D1FD2A3FF650AF8B426A
:1005600040EBC25008BF20F0010070470CF0004C77
:100570004CEA50207F32C2BFD2F1FF0340EAC250A2
:10058000704740F400004FF00003013A37E792F063
:10059000000F00F0004C02BF400010F4000F013AC1
:1005A000F9D040EA0C0093F0000F01F0004C02BFBC
:1005B000490011F4000F013BF9D041EA0C0195E725
:1005C0000CEAD15392EA0C0F08D142027FF47DAFBE
:1005D00093EA0C0F7FF470AF084676E793EA0C0FAE
:1005E00004D14B023FF44CAF08466EE730F0004CAC
:1005F00018BF31F0004CCAD130F000427FF45CAF3C
:1006000031F000437FF43CAF5FE700BF4FEA4002A8
:10061000B2F1FE4F0FD34FF09E03B3EB12620DD930
:100620004FEA002343F0004310F0004F23FA02F09A
:1006300018BF404270474FF00000704712F1610F41
:1006400001D1420205D110F0004008BF6FF0004018
:1006500070474FF000007047034613F8012B002A43
:10066000FBD1181A0138704781F0004102E000BF49
:1006700083F0004330B54FEA41044FEA430594EA62
:10068000050F08BF90EA020F1FBF54EA000C55EA9D
:10069000020C7FEA645C7FEA655C00F0E2804FEA6E
:1006A0005454D4EB5555B8BF6D420CDD2C4480EA50
:1006B000020281EA030382EA000083EA010180EA80
:1006C000020281EA0303362D88BF30BD11F0004FCE
:1006D0004FEA01314FF4801C4CEA113102D0404204
:1006E00061EB410113F0004F4FEA03334CEA13333F
:1006F00002D0524263EB430394EA050F00F0A78057
:10070000A4F10104D5F1200E0DDB02FA0EFC22FA51
:1007100005F2801841F1000103FA0EF2801843FA45
:1007200005F359410EE0A5F120050EF1200E012A36
:1007300003FA0EFC28BF4CF0020C43FA05F3C01874
:1007400051EBE37101F0004507D54FF0000EDCF1ED
:10075000000C7EEB00006EEB0101B1F5801F1BD396
:10076000B1F5001F0CD349085FEA30004FEA3C0C9A
:1007700004F101044FEA445212F5800F80F09A8090
:10078000BCF1004F08BF5FEA500C50F1000041EB94
:10079000045141EA050130BD5FEA4C0C404141EB98
:1007A000010111F4801FA4F10104E9D191F0000FBF
:1007B00004BF01460020B1FA81F308BF2033A3F142
:1007C0000B03B3F120020CDA0C3208DD02F1140C39
:1007D000C2F10C0201FA0CF021FA02F10CE002F174
:1007E0001402D8BFC2F1200C01FA02F120FA0CFC6D
:1007F000DCBF41EA0C019040E41AA2BF01EB0451B6
:10080000294330BD6FEA04041F3C1CDA0C340EDCB3
:1008100004F11404C4F1200220FA04F001FA02F3F6
:1008200040EA030021FA04F345EA030130BDC4F1B4
:100830000C04C4F1200220FA02F001FA04F340EAA9
:100840000300294630BD21FA04F0294630BD94F05A
:10085000000F83F4801306BF81F480110134013D41
:100860004EE77FEA645C18BF7FEA655C29D094EAB2
:10087000050F08BF90EA020F05D054EA000C04BF30
:100880001946104630BD91EA030F1EBF002100201B
:1008900030BD5FEA545C05D14000494128BF41F0BA
:1008A000004130BD14F580043CBF01F5801130BD1E
:1008B00001F0004545F0FE4141F470014FF00000A9
:1008C00030BD7FEA645C1ABF194610467FEA655C5A
:1008D0001CBF0B46024650EA013406BF52EA0335FC
:1008E00091EA030F41F4002130BD00BF90F0000FEA
:1008F00004BF0021704730B54FF4806404F1320426
:100900004FF000054FF0000150E700BF90F0000FDE
:1009100004BF0021704730B54FF4806404F1320405
:1009200010F0004548BF40424FF000013EE700BFD5
:1009300042004FEAE2014FEA31014FEA02701FBF65
:1009400012F07F4393F07F4F81F06051704732F097
:100950007F4208BF704793F07F4F04BF41F40021EE
:10096000704730B54FF4607401F0004521F000414C
:100970001CE700BF50EA010208BF704730B54FF0D6
:1009800000050AE050EA010208BF704730B511F0D7
:10099000004502D5404261EB41014FF4806404F10F
:1009A00032045FEA915C3FF4D8AE4FF003025FEA95
:1009B000DC0C18BF03325FEADC0C18BF033202EB19
:1009C000DC02C2F1200300FA03FC20FA02F001FA73
:1009D00003FE40EA0E0021FA02F11444BDE600BF16
:1009E00070B54FF0FF0C4CF4E06C1CEA11541DBFC5
:1009F0001CEA135594EA0C0F95EA0C0F00F0DEF890
:100A00002C4481EA030621EA4C5123EA4C5350EA74
:100A1000013518BF52EA033541F4801143F48013C5
:100A200038D0A0FB02CE4FF00005E1FB02E506F056
:100A30000042E0FB03E54FF00006E1FB03569CF0AB
:100A4000000F18BF4EF0010EA4F1FF04B6F5007FB1
:100A500064F5407404D25FEA4E0E6D4146EB060623
:100A600042EAC62141EA55514FEAC52040EA5E50AC
:100A70004FEACE2EB4F1FD0C88BFBCF5E06F1ED856
:100A8000BEF1004F08BF5FEA500E50F1000041EB8D
:100A9000045170BD06F0004646EA010140EA02003A
:100AA00081EA0301B4EB5C04C2BFD4EB0C0541EA5C
:100AB000045170BD41F480114FF0000E013C00F371
:100AC000AB8014F1360FDEBF002001F0004170BD95
:100AD000C4F10004203C35DA0C341BDC04F11404AE
:100AE000C4F1200500FA05F320FA04F001FA05F23A
:100AF00040EA020001F0004221F0004110EBD37007
:100B000021FA04F642EB06015EEA430E08BF20EA32
:100B1000D37070BDC4F10C04C4F1200500FA04F3D5
:100B200020FA05F001FA04F240EA020001F0004167
:100B300010EBD37041F100015EEA430E08BF20EADA
:100B4000D37070BDC4F1200500FA05F24EEA020E22
:100B500020FA04F301FA05F243EA020321FA04F051
:100B600001F0004121FA04F220EA020000EBD37008
:100B70005EEA430E08BF20EAD37070BD94F0000F08
:100B80000FD101F00046400041EB010111F4801F3C
:100B900008BF013CF7D041EA060195F0000F18BFED
:100BA000704703F00046520043EB030313F4801F29
:100BB00008BF013DF7D043EA0603704794EA0C0FE3
:100BC0000CEA135518BF95EA0C0F0CD050EA4106F9
:100BD00018BF52EA4306D1D181EA030101F0004176
:100BE0004FF0000070BD50EA410606BF104619469E
:100BF00052EA430619D094EA0C0F02D150EA0136AA
:100C000013D195EA0C0F05D152EA03361CBF1046EA
:100C100019460AD181EA030101F0004141F0FE4189
:100C200041F470014FF0000070BD41F0FE4141F40D
:100C3000780170BD70B54FF0FF0C4CF4E06C1CEA0D
:100C400011541DBF1CEA135594EA0C0F95EA0C0FC2
:100C500000F0A7F8A4EB050481EA030E52EA03357D
:100C60004FEA013100F088804FEA03334FF080559E
:100C700045EA131343EA12634FEA022245EA1115CB
:100C800045EA10654FEA00260EF000419D4208BF7C
:100C9000964244F1FD0404F5407402D25B084FEA29
:100CA0003202B61A65EB03055B084FEA32024FF4D5
:100CB00080104FF4002CB6EB020E75EB030E22BF32
:100CC000B61A754640EA0C005B084FEA3202B6EBF2
:100CD000020E75EB030E22BFB61A754640EA5C00A1
:100CE0005B084FEA3202B6EB020E75EB030E22BF31
:100CF000B61A754640EA9C005B084FEA3202B6EB32
:100D0000020E75EB030E22BFB61A754640EADC00F0
:100D100055EA060E18D04FEA051545EA16754FEA52
:100D200006164FEAC30343EA52734FEAC2025FEA70
:100D30001C1CC0D111F4801F0BD141EA00014FF0FF
:100D400000004FF0004CB6E711F4801F04BF0143D0
:100D50000020B4F1FD0C88BFBCF5E06F3FF6AFAEEC
:100D6000B5EB030C04BFB6EB020C5FEA500C50F17C
:100D7000000041EB045170BD0EF0004E4EEA1131FF
:100D800014EB5C04C2BFD4EB0C0541EA045170BD06
:100D900041F480114FF0000E013C90E645EA060E4A
:100DA0008DE60CEA135594EA0C0F08BF95EA0C0F78
:100DB0003FF43BAF94EA0C0F0AD150EA01347FF4C0
:100DC00034AF95EA0C0F7FF425AF104619462CE797
:100DD00095EA0C0F06D152EA03353FF4FDAE1046FA
:100DE000194622E750EA410618BF52EA43067FF44B
:100DF000C5AE50EA41047FF40DAF52EA43057FF4DB
:100E0000EBAE12E74FF0FF3C06E000BF4FF0010CE5
:100E100002E000BF4FF0010C4DF804CD4FEA410C49
:100E20007FEA6C5C4FEA430C18BF7FEA6C5C1BD016
:100E300001B050EA410C0CBF52EA430C91EA030F97
:100E400002BF90EA020F0020704710F1000F91EAF4
:100E5000030F58BF994208BF90422CBFD8176FEAC2
:100E6000E37040F0010070474FEA410C7FEA6C5C90
:100E700002D150EA013C07D14FEA430C7FEA6C5C97
:100E8000D6D152EA033CD3D05DF8040B704700BFC3
:100E90008446104662468C461946634600E000BF11
:100EA00001B5FFF7B7FF002848BF10F1000F01BDE3
:100EB0004DF808EDFFF7F4FF0CBF012000205DF8AE
:100EC00008FB00BF4DF808EDFFF7EAFF34BF012033
:100ED00000205DF808FB00BF4DF808EDFFF7E0FFCC
:100EE00094BF012000205DF808FB00BF4DF808ED1D
:100EF000FFF7CEFF94BF012000205DF808FB00BF84
:100F00004DF808EDFFF7C4FF34BF012000205DF865
:100F100008FB00BF4FEA410C7FEA6C5C02D150EA4B
:100F2000013C0AD14FEA430C7FEA6C5C02D152EAE1
:100F3000033C02D14FF0000070474FF001007047B2
:100F40004FEA410212F5001215D211D56FF47873F1
:100F5000B3EB625212D94FEAC12343F0004343EA94
:100F6000505311F0004F23FA02F018BF404270476F
:100F70004FF00000704750EA013005D111F00040F9
:100F800008BF6FF0004070474FF00000704700BF8F
:100F900080B500AF084B1B68074A43F0100313608D
:100FA000032000F041F9002000F008F802F01AFBDD
:100FB0000023184680BD00BF0020024080B582B0EB
:100FC00000AF7860124B1A68124B1B7819464FF429
:100FD0007A73B3FBF1F3B2FBF3F3184600F059F95F
:100FE0000346002B01D001230EE07B680F2B0AD8AB
:100FF000002279684FF0FF3000F021F9064A7B6843
:101000001360002300E0012318460837BD4680BD69
:1010100008000020040000200000002080B400AF81
:10102000054B1B781A46054B1B681344034A136093
:1010300000BFBD4680BC7047040000200C020020A9
:1010400080B400AF024B1B681846BD4680BC704799
:101050000C02002080B584B000AF7860FFF7F0FF8D
:10106000B8607B68FB60FB68B3F1FF3F05D0094BBC
:101070001B781A46FB681344FB6000BFFFF7E0FFD4
:101080000246BB68D31AFA689A42F7D800BF1037F5
:10109000BD4680BD0400002080B485B000AF7860FC
:1010A0007B6803F00703FB600C4BDB68BB60BA682E
:1010B0004FF6FF031340BB60FB681A02BB68134383
:1010C00043F0BF6343F40033BB60044ABB68D360A2
:1010D00000BF1437BD4680BC704700BF00ED00E084
:1010E00080B400AF044BDB681B0A03F0070318460B
:1010F000BD4680BC704700BF00ED00E080B483B007
:1011000000AF0346FB71FB7903F01F02064997F914
:1011100007305B09012000FA02F241F8232000BFEA
:101120000C37BD4680BC704700E100E080B483B05E
:1011300000AF03463960FB7197F90730002B0BDADB
:101140003B68DAB20C49FB7903F00F03043B120150
:10115000D2B20B441A7609E03B68DAB2074997F934
:1011600007301201D2B20B4483F8002300BF0C37C2
:10117000BD4680BC704700BF00ED00E000E100E02C
:1011800080B489B000AFF860B9607A60FB6803F0A2
:101190000703FB61FB69C3F10703042B28BF04238A
:1011A000BB61FB690433062B02D9FB69033B00E0FA
:1011B00000237B614FF0FF32BB6902FA03F3DA438D
:1011C000BB681A407B699A404FF0FF317B6901FA96
:1011D00003F3D9437B680B40134318462437BD46BD
:1011E00080BC704780B582B000AF78607B68013BFF
:1011F000B3F1807F01D301230FE00A4A7B68013BF2
:1012000053600F214FF0FF30FFF790FF054B002296
:101210009A60044B07221A60002318460837BD461F
:1012200080BD00BF10E000E080B582B000AF786004
:101230007868FFF731FF00BF0837BD4680BD80B535
:1012400086B000AF0346B9607A60FB7300237B6110
:10125000FFF746FF78617A68B9687869FFF790FF11
:10126000024697F90F3011461846FFF75FFF00BF9F
:101270001837BD4680BD80B582B000AF0346FB7114
:1012800097F907301846FFF739FF00BF0837BD460A
:1012900080BD80B582B000AF78607868FFF7A2FFAC
:1012A000034618460837BD4680BD000080B584B0AF
:1012B00000AF78600023FB737B6893F82130022B2A
:1012C00005D07B6804229A630123FB7351E07B689D
:1012D0001B681A687B681B6822F00E021A607B6824
:1012E0001B681A687B681B6822F001021A607B6821
:1012F0001B68224A934229D07B681B68204A93428C
:1013000022D07B681B681F4A93421AD07B681B68F7
:101310001D4A934212D07B681B681C4A93420AD034
:101320007B681B681A4A934202D14FF480130EE087
:101330004FF080730BE04FF4803308E04FF480539C
:1013400005E04FF4807302E0102300E00123114A0E
:1013500053607B68012283F821207B68002283F898
:1013600020207B685B6B002B03D07B685B6B78680D
:101370009847FB7B18461037BD4680BD08000240E9
:101380001C0002403000024044000240580002406D
:101390006C0002400000024080B48BB000AF786067
:1013A00039600023FB610023BB6100237B610023C4
:1013B0003B6200233B6100237B6227E101227B6AC1
:1013C00002FA03F3FB613B681B68FA691340BB61D7
:1013D000BA69FB699A4240F016813B685B68122B40
:1013E00034D0122B0DD8022B2BD0022B04D8002B7B
:1013F00031D0012B1CD048E0032B43D0112B1BD044
:1014000043E0874A934226D0854A934206D8854ACC
:10141000934220D0844A93421DD036E0834A9342BF
:1014200019D0834A934216D0824A934213D02CE0BB
:101430003B68DB683B6228E03B68DB6804333B6267
:1014400023E03B68DB6808333B621EE03B68DB68F7
:101450000C333B6219E03B689B68002B02D10423EC
:101460003B6212E03B689B68012B05D108233B627D
:101470007B68FA691A6108E008233B627B68FA69B5
:101480005A6102E000233B6200BFBB69FF2B01D819
:101490007B6801E07B680433FB60BB69FF2B02D8EB
:1014A0007B6A9B0002E07B6A083B9B003B61FB6818
:1014B0001A680F213B6901FA03F3DB431A40396ACA
:1014C0003B6901FA03F31A43FB681A603B685B68E7
:1014D00003F08053002B00F09680574B9B69564ACF
:1014E00043F001039361544B9B6903F00103BB601C
:1014F000BB68524A7B6A9B08023352F823307B61F7
:101500007B6A03F003039B000F2202FA03F3DB4321
:101510007A6913407B617B68494A934213D07B68A8
:10152000484A93420DD07B68474A934207D07B6874
:10153000464A934201D1032306E0042304E0022338
:1015400002E0012300E000237A6A02F00302920025
:1015500093407A6913437B6138497B6A9B08023365
:101560007A6941F823203B685B6803F48033002BE1
:1015700006D0374B1A683649BB6913430B6006E047
:10158000334B1A68BB69DB43314913400B603B683E
:101590005B6803F40033002B06D02D4B5A682C49AE
:1015A000BB6913434B6006E0294B5A68BB69DB43B8
:1015B000274913404B603B685B6803F48013002BA2
:1015C00006D0234B9A682249BB6913438B6006E01F
:1015D0001F4B9A68BB69DB431D4913408B603B6816
:1015E0005B6803F40013002B06D0194BDA68184926
:1015F000BB691343CB6006E0154BDA68BB69DB437C
:1016000013491340CB607B6A01337B627B6A0F2BEB
:101610007FF6D4AE00BF2C37BD4680BC704700BFFC
:101620000000211000001110000012100000311005
:1016300000003210000022100010024000000140A3
:1016400000080140000C014000100140001401405E
:101650000004014080B485B000AF78600B467B8009
:101660007B689A687B881340002B02D00123FB73B0
:1016700001E00023FB73FB7B18461437BD4680BC9A
:10168000704780B483B000AF78600B467B80134610
:101690007B707B78002B03D07A887B681A6103E02B
:1016A0007B881A047B681A6100BF0C37BD4680BC7A
:1016B0007047000080B582B000AF0346FB80084B46
:1016C0005A69FB881340002B06D0054AFB885361FA
:1016D000FB88184600F006F800BF0837BD4680BDFD
:1016E0000004014080B483B000AF0346FB8000BF1C
:1016F0000C37BD4680BC704780B584B000AF7860C1
:101700000023FB600023BB607B68002B01D1012319
:10171000E7E07B6893F83D30DBB2002B06D17B68B5
:10172000002283F83C20786801F08EFF7B68242239
:1017300083F83D207B681B681A687B681B6822F071
:1017400001021A6000F0B8FCB8607B685B68674A09
:10175000934207D8BB68664A934294BF0123002393
:10176000DBB206E0BB68634A934294BF01230023C7
:10177000DBB2002B01D00123B3E0BB685E4AA2FBC1
:1017800003239B0CFB607B681B68FA685A607B68CC
:101790005B68564A934202D8FB68013309E0FB6854
:1017A0004FF4967202FB03F3544AA2FB03239B09F6
:1017B00001337A68126813627B685B684B4A934214
:1017C0000DD8BB685A1E7B685B685B00B2FBF3F305
:1017D0000133C3F30B03042B38BF04234FE07B68B2
:1017E0009B68002B11D1BB68591E7B685A68134651
:1017F0005B001344B1FBF3F30133C3F30B03002B82
:101800000CBF01230023DBB212E0BB68591E7B68CA
:101810005A6813469B0013449A001344B1FBF3F338
:101820000133C3F30B03002B0CBF01230023DBB2F6
:10183000002B01D0012322E07B689B68002B0ED196
:10184000BB68591E7B685A6813465B001344B1FBA2
:10185000F3F30133C3F30B0343F400430FE0BB681E
:10186000591E7B685A6813469B0013449A00134420
:10187000B1FBF3F30133C3F30B0343F440437A6842
:101880001268D3617B68D9697B681A6A7B681B68B8
:101890000A431A607B6819697B68DA687B681B6891
:1018A0000A439A607B6859697B689A697B681B6800
:1018B0000A43DA607B681B681A687B681B6842F021
:1018C00001021A607B6800221A647B68202283F878
:1018D0003D207B6800221A637B68002283F83E204B
:1018E000002318461037BD4680BD00BFA08601000A
:1018F0007F841E00FF083D0083DE1B43D34D621032
:1019000080B586B000AF786000233B617B681B68C0
:1019100003F00103002B00F08780924B5B6803F01B
:101920000C03042B0CD08F4B5B6803F00C03082BCB
:1019300012D18C4B5B6803F48033B3F5803F0BD13D
:10194000884B1B6803F40033002B6CD07B685B680A
:10195000002B68D101232DE27B685B68B3F5803FE3
:1019600006D1804B1B687F4A43F4803313602EE01E
:101970007B685B68002B0CD17A4B1B68794A23F497
:1019800080331360774B1B68764A23F480231360FF
:101990001DE07B685B68B3F5A02F0CD1714B1B6811
:1019A000704A43F4802313606E4B1B686D4A43F406
:1019B000803313600BE06B4B1B686A4A23F480335F
:1019C0001360684B1B68674A23F4802313607B68AD
:1019D0005B68002B13D0FFF733FB386108E0FFF79B
:1019E0002FFB02463B69D31A642B01D90323E1E1A3
:1019F0005C4B1B6803F40033002BF0D014E0FFF7BE
:101A00001FFB386108E0FFF71BFB02463B69D31A56
:101A1000642B01D90323CDE1524B1B6803F400333F
:101A2000002BF0D100E000BF7B681B6803F00203CD
:101A3000002B63D04B4B5B6803F00C03002B0BD0E7
:101A4000484B5B6803F00C03082B1CD1454B5B68CB
:101A500003F48033002B16D1424B1B6803F00203C2
:101A6000002B05D07B681B69012B01D00123A1E16C
:101A70003C4B1B6823F0F8027B685B69DB0039494B
:101A800013430B603AE07B681B69002B20D0364B78
:101A900001221A60FFF7D4FA386108E0FFF7D0FAA4
:101AA00002463B69D31A022B01D9032382E12D4B55
:101AB0001B6803F00203002BF0D02A4B1B6823F0B5
:101AC000F8027B685B69DB00264913430B6015E075
:101AD000254B00221A60FFF7B3FA386108E0FFF7E0
:101AE000AFFA02463B69D31A022B01D9032361E105
:101AF0001C4B1B6803F00203002BF0D17B681B68B2
:101B000003F00803002B39D07B689B69002B19D0A8
:101B1000164B01221A60FFF793FA386108E0FFF7CD
:101B20008FFA02463B69D31A022B01D9032341E104
:101B30000C4B5B6A03F00203002BF0D0012000F095
:101B4000E3FA1BE0094B00221A60FFF779FA3861CB
:101B50000EE0FFF775FA02463B69D31A022B07D94C
:101B6000032327E100100240000042428004424269
:101B7000924B5B6A03F00203002BEAD17B681B687F
:101B800003F00403002B00F0A6800023FB758B4BB1
:101B9000DB6903F08053002B0DD1884BDB69874A4A
:101BA00043F08053D361854BDB6903F08053FB60C6
:101BB000FB680123FB75824B1B6803F48073002BC9
:101BC00018D17F4B1B687E4A43F480731360FFF784
:101BD00037FA386108E0FFF733FA02463B69D31A57
:101BE000642B01D90323E5E0754B1B6803F4807374
:101BF000002BF0D07B68DB68012B06D16F4B1B6A92
:101C00006E4A43F0010313622DE07B68DB68002B12
:101C10000CD16A4B1B6A694A23F001031362674BBC
:101C20001B6A664A23F0040313621CE07B68DB68CE
:101C3000052B0CD1614B1B6A604A43F0040313620D
:101C40005E4B1B6A5D4A43F0010313620BE05B4B82
:101C50001B6A5A4A23F001031362584B1B6A574A06
:101C600023F0040313627B68DB68002B15D0FFF7B9
:101C7000E7F938610AE0FFF7E3F902463B69D31A56
:101C800041F28832934201D9032393E04B4B1B6A04
:101C900003F00203002BEED014E0FFF7D1F9386116
:101CA0000AE0FFF7CDF902463B69D31A41F28832C8
:101CB000934201D903237DE0404B1B6A03F00203EA
:101CC000002BEED1FB7D012B05D13C4BDB693B4A60
:101CD00023F08053D3617B68DB69002B69D0374BDD
:101CE0005B6803F00C03082B61D07B68DB69022B77
:101CF00046D1344B00221A60FFF7A2F9386108E0A0
:101D0000FFF79EF902463B69D31A022B01D9032340
:101D100050E02A4B1B6803F00073002BF0D17B6866
:101D20001B6AB3F5803F08D1244B5B6823F4003273
:101D30007B689B68214913434B60204B5B6823F40D
:101D400074127B68196A7B685B6A0B431B491343F7
:101D50004B601C4B01221A60FFF772F9386108E0F2
:101D6000FFF76EF902463B69D31A022B01D9032310
:101D700020E0124B1B6803F00073002BF0D018E03A
:101D8000104B00221A60FFF75BF9386108E0FFF79B
:101D900057F902463B69D31A022B01D9032309E004
:101DA000064B1B6803F00073002BF0D101E0012308
:101DB00000E0002318461837BD4680BD00100240E1
:101DC000007000406000424280B584B000AF78608F
:101DD00039600023FB607E4B1B6803F007033A6801
:101DE0009A4210D97A4B1B6823F0070278493B6866
:101DF00013430B60764B1B6803F007033A689A4263
:101E000001D00123E0E07B681B6803F00203002B94
:101E100020D07B681B6803F00403002B05D06D4BBA
:101E20005B686C4A43F4E06353607B681B6803F0B3
:101E30000803002B05D0674B5B68664A43F4605388
:101E40005360644B5B6823F0F0027B689B686149D8
:101E500013434B607B681B6803F00103002B6AD0BF
:101E60007B685B68012B07D15A4B1B6803F4003376
:101E7000002B15D10123A7E07B685B68022B07D1FB
:101E8000544B1B6803F00073002B09D101239BE026
:101E9000504B1B6803F00203002B01D1012393E098
:101EA0004C4B5B6823F003027B685B684949134332
:101EB0004B60FFF7C5F8F8607B685B68012B12D1B7
:101EC0000AE0FFF7BDF80246FB68D31A41F28832F8
:101ED000934201D9032377E03E4B5B6803F00C0388
:101EE000042BEED127E07B685B68022B1DD10AE052
:101EF000FFF7A6F80246FB68D31A41F288329342F4
:101F000001D9032360E0334B5B6803F00C03082B1B
:101F1000EED110E0FFF794F80246FB68D31A41F2C5
:101F20008832934201D903234EE02A4B5B6803F0C9
:101F30000C03002BEED1264B1B6803F007033A6815
:101F40009A4210D2224B1B6823F0070220493B68BB
:101F500013430B601E4B1B6803F007033A689A4259
:101F600001D0012330E07B681B6803F00403002BE1
:101F700008D0184B5B6823F4E0627B68DB68154986
:101F800013434B607B681B6803F00803002B09D0E8
:101F9000104B5B6823F460527B681B69DB000D49C2
:101FA00013434B6000F01CF801460A4B5B681B09A9
:101FB00003F00F03084AD35C21FA03F3074A1360C6
:101FC0000020FEF7FBFF002318461037BD4680BDFA
:101FD0000020024000100240645500080800002064
:101FE00090B48AB000AF2A4B3C1D0FCB84E80F00A1
:101FF000284B1B883B800023FB610023BB6100232F
:102000007B6200237B6100233B62234B5B68FB61A7
:10201000FB6903F00C03042B02D0082B03D02DE046
:102020001E4B3B622DE0FB699B0C03F00F0307F195
:102030002802134413F8243C7B61FB6903F48033CA
:10204000002B13D0144B5B685B0C03F0010307F10A
:102050002802134413F8283CBB617B690F4A02FB3A
:1020600003F2BB69B2FBF3F37B6204E07B690C4AC9
:1020700002FB03F37B627B6A3B6202E0074B3B623D
:1020800000BF3B6A18462837BD4690BC704700BF6A
:1020900050550008605500080010024000127A00F8
:1020A00000093D0080B400AF024B1B681846BD46D6
:1020B00080BC70470800002080B500AFFFF7F2FF3A
:1020C0000146054B5B681B0A03F00703034AD35C18
:1020D00021FA03F3184680BD001002407455000831
:1020E00080B500AFFFF7DEFF0146054B5B68DB0AFA
:1020F00003F00703034AD35C21FA03F3184680BDBB
:10210000001002407455000880B485B000AF7860BC
:102110000A4B1B680A4AA2FB03235B0A7A6802FB8C
:1021200003F3FB6000BFFB685A1EFA60002BF9D175
:1021300000BF1437BD4680BC704700BF08000020B8
:10214000D34D621080B582B000AF78607B68002B01
:1021500001D101231DE07B6893F83D30DBB2002BF9
:1021600006D17B68002283F83C20786801F0AAFA47
:102170007B68022283F83D207B681A687B68043301
:102180001946104600F0F8F87B68012283F83D20DC
:10219000002318460837BD4680BD000080B582B0D8
:1021A00000AF786039607B681B6801223968184687
:1021B00000F0E8FA7B681B680B4A934207D17B6802
:1021C0001B685A6C7B681B6842F400425A647B6847
:1021D0001B681A687B681B6842F001021A600023C2
:1021E00018460837BD4680BD002C014080B584B03C
:1021F00000AFF860B9607A60FB6893F83C30012B5F
:1022000001D10223B4E0FB68012283F83C20FB6883
:10221000022283F83D207B680C2B00F29F8001A2F4
:1022200052F823F0592200085D2300085D230008BE
:102230005D230008992200085D2300085D23000843
:102240005D230008DB2200085D2300085D230008F1
:102250005D2300081B230008FB681B68B96818464B
:1022600000F0F0F8FB681B689A69FB681B6842F095
:1022700008029A61FB681B689A69FB681B6822F078
:1022800004029A61FB681B689969BB681A69FB685C
:102290001B680A439A6162E0FB681B68B9681846CC
:1022A00000F03CF9FB681B689A69FB681B6842F404
:1022B00000629A61FB681B689A69FB681B6822F4DC
:1022C00080629A61FB681B689969BB681B691A0286
:1022D000FB681B680A439A6141E0FB681B68B968A8
:1022E000184600F08BF9FB681B68DA69FB681B680D
:1022F00042F00802DA61FB681B68DA69FB681B6858
:1023000022F00402DA61FB681B68D969BB681A69AC
:10231000FB681B680A43DA6121E0FB681B68B96847
:10232000184600F0DBF9FB681B68DA69FB681B687C
:1023300042F40062DA61FB681B68DA69FB681B68BB
:1023400022F48062DA61FB681B68D969BB681B698B
:102350001A02FB681B680A43DA6100E000BFFB68F1
:10236000012283F83D20FB68002283F83C200023F3
:1023700018461037BD4680BD80B485B000AF786088
:1023800039600023FB607B681B68FB607B682A4A1E
:1023900093420BD07B68B3F1804F07D07B68274A0C
:1023A000934203D07B68264A934208D1FB6823F00E
:1023B0007003FB603B685B68FA681343FB607B68F3
:1023C0001D4A93420BD07B68B3F1804F07D07B68E6
:1023D0001A4A934203D07B68194A934208D1FB689A
:1023E00023F44073FB603B68DB68FA681343FB60CF
:1023F000FB6823F08003FB603B685B69FA6813436A
:10240000FB607B68FA681A603B689A687B68DA62EE
:102410003B681A687B689A627B68074A934203D1DB
:102420003B681A697B681A637B6801225A6100BFA6
:102430001437BD4680BC7047002C014000040040AA
:102440000008004080B487B000AF78603960002396
:10245000FB6000237B6100233B617B681B6A23F0E8
:1024600001027B681A627B681B6A7B617B685B6820
:102470003B617B689B69FB60FB6823F07003FB603A
:10248000FB6823F00303FB603B681B68FA68134397
:10249000FB607B6923F002037B613B689B687A6980
:1024A00013437B617B681C4A93420CD17B6923F008
:1024B00008037B613B68DB687A6913437B617B6956
:1024C00023F004037B617B68134A934211D13B697B
:1024D00023F480733B613B6923F400733B613B68E9
:1024E0005B693A6913433B613B689B693A691343F3
:1024F0003B617B683A695A607B68FA689A613B681D
:102500005A687B685A637B687A691A6200BF1C3715
:10251000BD4680BC704700BF002C014080B487B02E
:1025200000AF786039600023FB6000237B610023EB
:102530003B617B681B6A23F010027B681A627B6830
:102540001B6A7B617B685B683B617B689B69FB60A6
:10255000FB6823F4E043FB60FB6823F44073FB60FB
:102560003B681B681B02FA681343FB607B6923F01E
:1025700020037B613B689B681B017A6913437B6185
:102580007B681D4A93420DD17B6923F080037B61F8
:102590003B68DB681B017A6913437B617B6923F02D
:1025A00040037B617B68144A934213D13B6923F457
:1025B00080633B613B6923F400633B613B685B697B
:1025C0009B003A6913433B613B689B699B003A69F6
:1025D00013433B617B683A695A607B68FA689A6189
:1025E0003B685A687B689A637B687A691A6200BFA5
:1025F0001C37BD4680BC7047002C014080B487B0BA
:1026000000AF786039600023FB6000237B6100230A
:102610003B617B681B6A23F480727B681A627B686B
:102620001B6A7B617B685B683B617B68DB69FB6085
:10263000FB6823F07003FB60FB6823F00303FB607F
:102640003B681B68FA681343FB607B6923F40073E3
:102650007B613B689B681B027A6913437B617B68E3
:102660001D4A93420DD17B6923F400637B613B6873
:10267000DB681B027A6913437B617B6923F4806307
:102680007B617B68144A934213D13B6923F48053E6
:102690003B613B6923F400533B613B685B691B0171
:1026A0003A6913433B613B689B691B013A691343D9
:1026B0003B617B683A695A607B68FA68DA613B681B
:1026C0005A687B68DA637B687A691A6200BF1C37D4
:1026D000BD4680BC704700BF002C014080B487B06D
:1026E00000AF7860396000233B610023FB6000236A
:1026F0007B617B681B6A23F480527B681A627B686B
:102700001B6AFB607B685B687B617B68DB693B61A4
:102710003B6923F4E0433B613B6923F440733B6135
:102720003B681B681B023A6913433B61FB6823F457
:102730000053FB603B689B681B03FA681343FB6014
:102740007B680F4A934209D17B6923F480437B6104
:102750003B685B699B017A6913437B617B687A699B
:102760005A607B683A69DA613B685A687B681A6428
:102770007B68FA681A6200BF1C37BD4680BC704790
:10278000002C014080B487B000AFF860B9607A6077
:1027900000237B610122BB6802FA03F37B61FB68C3
:1027A0001A6A7B69DB431A40FB681A62FB681A6A83
:1027B0007968BB6801FA03F31A43FB681A6200BF29
:1027C0001C37BD4680BC704780B483B000AF7860D2
:1027D00039607B6893F83C30012B01D1022332E051
:1027E0007B68012283F83C207B68022283F83D202D
:1027F0007B681B685A687B681B6822F070025A600D
:102800007B681B6859683B681A687B681B680A43C9
:102810005A607B681B689A687B681B6822F080029C
:102820009A607B681B6899683B685A687B681B687C
:102830000A439A607B68012283F83D207B6800226E
:1028400083F83C20002318460C37BD4680BC7047F7
:1028500080B582B000AF78607B68002B01D1012386
:102860003FE07B6893F83930DBB2002B06D17B6800
:10287000002283F83820786800F0D4FF7B68242297
:1028800083F839207B681B68DA687B681B6822F450
:102890000052DA60786800F057FA7B681B681A69A2
:1028A0007B681B6822F490421A617B681B685A6936
:1028B0007B681B6822F02A025A617B681B68DA6811
:1028C0007B681B6842F40052DA607B680022DA639E
:1028D0007B68202283F839207B68202283F83A2005
:1028E000002318460837BD4680BD000080B588B07B
:1028F00000AF78607B681B681B68FB617B681B68A6
:10290000DB68BB617B681B685B697B6100233B61A3
:102910000023FB60FB6903F00F033B613B69002B65
:102920000DD1FB6903F02003002B08D0BB6903F035
:102930002003002B03D0786800F084F9CCE03B69D9
:10294000002B00F0AB807B6903F00103002B05D165
:10295000BB6903F49073002B00F0A080FB6903F0C7
:102960000103002B0AD0BB6903F48073002B05D050
:102970007B68DB6B43F001027B68DA63FB6903F081
:102980000403002B0AD07B6903F00103002B05D060
:102990007B68DB6B43F002027B68DA63FB6903F060
:1029A0000203002B0AD07B6903F00103002B05D042
:1029B0007B68DB6B43F004027B68DA63FB6903F03E
:1029C0000803002B0AD07B6903F00103002B05D01C
:1029D0007B68DB6B43F008027B68DA637B68DB6B48
:1029E000002B78D0FB6903F02003002B07D0BB69D4
:1029F00003F02003002B02D0786800F023F97B68F5
:102A00001B685B6903F04003002B14BF0123002304
:102A1000DBB2FB607B68DB6B03F00803002B02D1A9
:102A2000FB68002B31D0786800F06EF87B681B687B
:102A30005B6903F04003002B23D07B681B685A6955
:102A40007B681B6822F040025A617B685B6B002B3D
:102A500013D07B685B6B224A5A637B685B6B1846BA
:102A6000FEF724FC0346002B16D07B685B6B5B6B88
:102A70007A68526B104698470EE0786800F03BF891
:102A80000AE0786800F037F806E0786800F033F87C
:102A90007B680022DA631EE000BF1CE0FB6903F0E4
:102AA0008003002B08D0BB6903F08003002B03D008
:102AB000786800F05AF80FE0FB6903F04003002B40
:102AC0000AD0BB6903F04003002B05D0786800F002
:102AD000A1F800BF00E000BF2037BD4680BD00BFA9
:102AE000432B000880B483B000AF786000BF0C3780
:102AF000BD4680BC704780B483B000AF786000BF33
:102B00000C37BD4680BC704780B483B000AF78609E
:102B10007B681B68DA687B681B6822F49072DA6055
:102B20007B681B685A697B681B6822F001025A6146
:102B30007B68202283F83A2000BF0C37BD4680BC5A
:102B4000704780B584B000AF78607B685B6AFB60DB
:102B5000FB680022DA85FB680022DA84F868FFF758
:102B6000CAFF00BF1037BD4680BD80B485B000AF3E
:102B700078607B6893F83930DBB2212B44D17B68D5
:102B80009B68B3F5805F1AD17B681B6AFB60FB68AA
:102B90001B881A467B681B68C2F308025A607B6870
:102BA0001B69002B05D17B681B6A9A1C7B681A6223
:102BB0000EE07B681B6A5A1C7B681A6208E07B681F
:102BC0001B6A591C7A6811621A787B681B685A6004
:102BD0007B68DB8C9BB2013B9BB27A681946D1843F
:102BE000002B0FD17B681B68DA687B681B6822F0BA
:102BF0008002DA607B681B68DA687B681B6842F0D9
:102C00004002DA60002300E0022318461437BD4674
:102C100080BC704780B582B000AF78607B681B686D
:102C2000DA687B681B6822F04002DA607B68202249
:102C300083F839207868FFF755FF002318460837D6
:102C4000BD4680BD80B584B000AF78607B6893F8E6
:102C50003A30DBB2222B71D17B689B68B3F5805F81
:102C600023D17B689B6AFB607B681B69002B0ED1BC
:102C70007B681B685B689BB2C3F308039AB2FB686E
:102C80001A807B689B6A9A1C7B689A6229E07B6841
:102C90001B685B689BB2DBB29AB2FB681A807B68E8
:102CA0009B6A5A1C7B689A621BE07B681B69002B3D
:102CB0000AD17B681B6858687B689B6A591C7A68D4
:102CC0009162C2B21A700CE07B681B685B68DAB272
:102CD0007B689B6A581C7968886202F07F02D2B2D6
:102CE0001A707B68DB8D9BB2013B9BB27A681946F8
:102CF000D185002B20D17B681B68DA687B681B6854
:102D000022F02002DA607B681B68DA687B681B6847
:102D100022F48072DA607B681B685A697B681B68E2
:102D200022F001025A617B68202283F83A207868F9
:102D300000F0CEF9002302E0002300E00223184651
:102D40001037BD4680BD0000B0B584B000AF7860DC
:102D50000023FB607B681B681B6923F440517B6880
:102D6000DA687B681B680A431A617B689A687B682B
:102D70001B691A437B685B691343FA681343FB6062
:102D80007B681B68DB6823F4B05323F00C037A687C
:102D90001268F9680B43D3607B681B685B6923F496
:102DA00040717B689A697B681B680A435A617B683B
:102DB0001B686F4A93426BD1FFF792F902461346A4
:102DC0009B0013449A001A447B685B689B00B2FB2B
:102DD000F3F3684AA2FB03235B091C01FFF780F9A8
:102DE000024613469B0013449A001A447B685B68B2
:102DF0009B00B2FBF3F5FFF773F9024613469B0005
:102E000013449A001A447B685B689B00B2FBF3F39F
:102E1000584AA2FB03235B09642202FB03F3EB1A6B
:102E20001B013233534AA2FB03235B0903F0F00377
:102E30001C44FFF755F9024613469B0013449A00C1
:102E40001A447B685B689B00B2FBF3F5FFF748F917
:102E5000024613469B0013449A001A447B685B6841
:102E60009B00B2FBF3F3434AA2FB03235B096422FA
:102E700002FB03F3EB1A1B0132333E4AA2FB03238E
:102E80005B0903F00F027B681B6822449A606AE0CA
:102E9000FFF712F9024613469B0013449A001A44A6
:102EA0007B685B689B00B2FBF3F3324AA2FB03230F
:102EB0005B091C01FFF700F9024613469B0013440F
:102EC0009A001A447B685B689B00B2FBF3F5FFF73E
:102ED000F3F8024613469B0013449A001A447B6899
:102EE0005B689B00B2FBF3F3224AA2FB03235B095E
:102EF000642202FB03F3EB1A1B0132331D4AA2FBCF
:102F000003235B0903F0F0031C44FFF7D5F80246E6
:102F100013469B0013449A001A447B685B689B002D
:102F2000B2FBF3F5FFF7C8F8024613469B001344C3
:102F30009A001A447B685B689B00B2FBF3F30D4A6E
:102F4000A2FB03235B09642202FB03F3EB1A1B01C0
:102F50003233084AA2FB03235B0903F00F027B68AC
:102F60001B6822449A6000BF1037BD46B0BD00BF49
:102F7000003801401F85EB5180B400AF104B114A5F
:102F80001A600F4B0F4A5A600D4B0F4A9A600C4B58
:102F90000D4ADA600A4B0C4A1A610C4B00221A6087
:102FA0000A4B04225A60094B00229A60074B042204
:102FB000DA60064B08221A6100BFBD4680BC70472C
:102FC00040040020C003002064020020AC03002065
:102FD00080B483B000AF00237B6013E00D4A7B68B0
:102FE00052F823301B6803F134020B497B6851F817
:102FF00023309B089B00134440F2DC521A607B682C
:1030000001337B607B68042BE8DD00BF0C37BD46D5
:1030100080BC704740040020AC03002080B582B023
:1030200000AF00237B600DE00A4A7B6852F8230062
:10303000094A7B6852F823301946FFF7AFF87B68DE
:1030400001337B607B68042BEEDD00BF0837BD4693
:1030500080BD00BF40040020AC03002080B485B0D8
:1030600000AFF860B9607A6009E07B68013BFA68FC
:103070001A447B68013BB9680B4412781A707B686C
:103080005A1E7A60002BF0D100BF1437BD4680BCB9
:10309000704780B582B000AF78604FF4C8731846AF
:1030A000FDF70CF9034679681846FDF75FF903460A
:1030B0001846FDF7ABFA03461BB29AB240F2DC5356
:1030C0009BB213449BB218460837BD4680BD000032
:1030D00080B582B000AF78607B68094A93420BD11B
:1030E000084B1B78002B07D1642207490748FFF7DC
:1030F000B5FF044B01221A7000BF0837BD4680BDE2
:1031000008030020F8010020A4020020480300204A
:1031100080B5C8B000AFFDF73BFF00F053F800F0FA
:10312000EBF900F0BFF900F0C1F800F02DF900F064
:103130008FF900F08DF8FFF71FFFFFF749FFFFF74A
:103140006DFF4FF47A70FDF785FF4FF4005118487A
:10315000FEF780FA0346002B13D11648FFF799FFBC
:103160000346A7F81C31144B1B681B6803F134029B
:10317000124B1B689B089B001344B7F81C211A6074
:1031800012E00F48FFF785FF0346A7F81E310A4BF0
:103190001B681B6803F13402084B1B689B089B00EB
:1031A0001344B7F81E211A600A20FDF753FFCCE73D
:1031B000001001409A9999BE40040020AC03002001
:1031C000CDCCCCBD80B590B000AF07F1180328225C
:1031D0000021184600F09DFC3B1D00221A605A6039
:1031E0009A60DA601A610123BB614FF4A023FB618E
:1031F00000233B620123BB6202237B634FF48033D5
:10320000BB634FF4E013FB6307F118031846FEF7A6
:1032100077FB0346002B01D000F0DEF90F237B6023
:103220000223BB600023FB604FF480633B610023FB
:103230007B613B1D02211846FEF7C6FD0346002BAD
:1032400001D000F0C9F900BF4037BD4680BD000085
:1032500080B500AF124B134A1A60114B124A5A60E4
:103260000F4B00229A600E4B0022DA600C4B4FF499
:1032700080421A610A4B00225A61094B00229A616E
:10328000074B0022DA61064B00221A620448FEF75F
:1032900033FA0346002B01D000F09EF900BF80BD39
:1032A0001002002000540040A086010080B58AB0C2
:1032B00000AF07F1200300221A605A603B1D002274
:1032C0001A605A609A60DA601A615A619A612D4BED
:1032D0004FF080421A602B4B47225A60294B002244
:1032E0009A60284B40F6C312DA60264B00221A611E
:1032F000244B00229A612348FEF724FF0346002B4B
:1033000001D000F069F900233B6200237B6207F1E2
:10331000200319461B48FFF757FA0346002B01D03C
:1033200000F05AF960237B600023BB600023FB6040
:1033300000237B613B1D002219461248FEF756FF11
:103340000346002B01D000F047F93B1D042219462B
:103350000C48FEF74BFF0346002B01D000F03CF970
:103360003B1D082219460748FEF740FF0346002B85
:1033700001D000F031F9034800F0D4F900BF28373C
:10338000BD4680BDC003002080B58AB000AF07F104
:10339000200300221A605A603B1D00221A605A6006
:1033A0009A60DA601A615A619A61274B274A1A605B
:1033B000254B47225A60244B00229A60224B40F64C
:1033C000C312DA60204B00221A611F4B00229A615F
:1033D0001D48FEF7B7FE0346002B01D000F0FCF8B5
:1033E00000233B6200237B6207F120031946164845
:1033F000FFF7EAF90346002B01D000F0EDF8602357
:103400007B600023BB600023FB6000237B613B1DCE
:10341000002219460C48FEF7E9FE0346002B01D0B6
:1034200000F0DAF83B1D042219460748FEF7DEFEDD
:103430000346002B01D000F0CFF8034800F072F9EA
:1034400000BF2837BD4680BD640200200004004054
:1034500080B500AF114B124A1A60104B4FF4E132A5
:103460005A600E4B00229A600C4B0022DA600B4B24
:1034700000221A61094B0C225A61084B00229A6102
:10348000064B0022DA610548FFF7E2F90346002BFC
:1034900001D000F0A1F800BF80BD00BF08030020EC
:1034A0000038014080B500AF114B124A1A60104B32
:1034B0004FF4E1325A600E4B00229A600C4B00220E
:1034C000DA600B4B00221A61094B0C225A61084B3F
:1034D00000229A61064B0022DA610548FFF7B8F92D
:1034E0000346002B01D000F077F800BF80BD00BF7D
:1034F000000400200044004080B588B000AF07F110
:10350000100300221A605A609A60DA602E4B9B69A1
:103510002D4A43F0100393612B4B9B6903F010037A
:10352000FB60FB68284B9B69274A43F020039361AB
:10353000254B9B6903F02003BB60BB68224B9B6952
:10354000214A43F0040393611F4B9B6903F004037A
:103550007B607B681C4B9B691B4A43F008039361AB
:10356000194B9B6903F008033B603B6800224FF452
:1035700002611648FEF785F84FF400533B61144B87
:103580007B610023BB6107F1100319461148FDF769
:1035900003FF4FF402633B6101237B610023BB61A6
:1035A0000223FB6107F1100319460848FDF7F4FEFA
:1035B000002200212820FDF742FE2820FDF75BFEB7
:1035C00000BF2037BD4680BD00100240000801400A
:1035D000000011100010014080B400AF00BFBD46D4
:1035E00080BC704780B485B000AF154B9B69144A0E
:1035F00043F001039361124B9B6903F00103BB602D
:10360000BB680F4BDB690E4A43F08053D3610C4B10
:10361000DB6903F080537B607B680A4B5B68FB606F
:10362000FB6823F0E063FB60FB6843F00073FB6022
:10363000044AFB68536000BF1437BD4680BC704726
:10364000001002400000014080B588B000AF7860F3
:1036500007F1100300221A605A609A60DA607B68F2
:103660001B68154A934223D1144B9B69134A43F0BC
:1036700008039361114B9B6903F00803FB60FB682F
:10368000C0233B6112237B610323FB6107F110031D
:1036900019460B48FDF780FE084BDB69074A43F4E7
:1036A0000013D361054BDB6903F40013BB60BB68F7
:1036B00000BF2037BD4680BD0054004000100240CE
:1036C000000C014080B485B000AF78607B681B6857
:1036D000B3F1804F0CD1114BDB69104A43F0010369
:1036E000D3610E4BDB6903F00103FB60FB6810E064
:1036F0007B681B680A4A93420BD1084BDB69074A77
:1037000043F00203D361054BDB6903F00203BB60A6
:10371000BB6800BF1437BD4680BC70470010024034
:103720000004004080B58AB000AF786007F1140350
:1037300000221A605A609A60DA607B681B68B3F1F5
:10374000804F43D1324B9B69314A43F0040393616C
:103750002F4B9B6903F004033B613B692C4B9B6936
:103760002B4A43F008039361294B9B6903F008033C
:10377000FB60FB6803237B610223BB6102233B6286
:1037800007F1140319462348FDF706FE4FF4806342
:103790007B610223BB6102233B6207F114031946DC
:1037A0001D48FDF7F9FD1D4B5B687B627B6A23F4C6
:1037B00040737B627B6A43F0E0637B627B6A43F425
:1037C00000737B62154A7B6A53601CE07B681B6850
:1037D000134A934217D10E4B9B690D4A43F00403E1
:1037E00093610B4B9B6903F00403BB60BB68C02370
:1037F0007B610223BB6102233B6207F1140319467C
:103800000448FDF7C9FD00BF2837BD4680BD00BF95
:103810000010024000080140000C0140000001407F
:103820000004004080B58AB000AF786007F118034B
:1038300000221A605A609A60DA607B681B68354A19
:1038400093423AD1344B9B69334A43F480439361AA
:10385000314B9B6903F480437B617B692E4B9B69F1
:103860002D4A43F0040393612B4B9B6903F004033F
:103870003B613B694FF40073BB610223FB6103238F
:103880007B6207F1180319462448FDF785FD4FF4C4
:103890008063BB610023FB6100233B6207F11803D7
:1038A00019461E48FDF778FD002200212520FDF76E
:1038B000C6FC2520FDF7DFFC28E07B681B68184A62
:1038C000934223D1144BDB69134A43F40033D36191
:1038D000114BDB6903F40033FB60FB680E4B9B6903
:1038E0000D4A43F0040393610B4B9B6903F00403FF
:1038F000BB60BB680C23BB610223FB6102237B62BC
:1039000007F1180319460548FDF746FD00BF2837A3
:10391000BD4680BD00380140001002400008014053
:103920000044004080B400AF00BFBD4680BC70477B
:1039300080B400AFFEE780B400AFFEE780B400AF14
:10394000FEE780B400AFFEE780B400AF00BFBD4625
:1039500080BC704780B400AF00BFBD4680BC7047DC
:1039600080B400AF00BFBD4680BC704780B500AFDB
:10397000FDF754FB00BF80BD80B500AF0248FEF7E5
:10398000B5FF00BF80BD00BF0803002080B500AFB9
:103990004FF40050FDF78EFE00BF80BD80B584B0AF
:1039A00000AF7860114B1B68002B02D10F4B104AFF
:1039B0001A600E4B1B68FB600C4B1A687B68134443
:1039C0006A46934207D900F06FF802460C23136051
:1039D0004FF0FF3306E0054B1A687B681344034A37
:1039E0001360FB6818461037BD4680BD00020020FA
:1039F0005804002080B400AF154B1B68144A43F0F4
:103A000001031360124B5A681149124B13404B606B
:103A10000F4B1B680E4A23F0847323F4803313602A
:103A20000B4B1B680A4A23F480231360084B5B6826
:103A3000074A23F4FE035360054B4FF41F029A60BC
:103A4000054B4FF000629A6000BFBD4680BC7047D6
:103A5000001002400000FFF800ED00E0002103E04C
:103A60000B4B5B58435004310A480B4B42189A42A7
:103A7000F6D30A4A02E0002342F8043B084B9A427C
:103A8000F9D3FFF7B7FF00F015F8FFF741FB7047D8
:103A9000B057000800000020DC010020DC010020FD
:103AA00058040020FEE70000014B1868704700BF73
:103AB0000C00002070B500250C4E0D4CA41BA4106A
:103AC000A54209D101F038FD00250A4E0A4CA41B7D
:103AD000A410A54205D170BD56F825309847013590
:103AE000EEE756F8253098470135F2E7A857000869
:103AF000A8570008A8570008AC57000810B5431E87
:103B00000A44914200D110BD11F8014B03F8014F56
:103B1000F7E703460244934200D1704703F8011BC4
:103B2000F9E7002B2DE9F0471E46BBBF03F1004328
:103B30001E4600232D2388B0149FDDE9121A27F0BA
:103B40002007462F1446109D0B7004D0452F00D13E
:103B50000135022300E0032307AA049206AACDE957
:103B600002A2CDE900352246334600F0A5FB472FDF
:103B7000804602D1119BDB0726D5462F08EB0509AD
:103B800011D198F80030302B0AD1002200232046B2
:103B90003146FDF78DF918B9C5F10105CAF8005095
:103BA000DAF8003099440022002320463146FDF720
:103BB0007FF938B93022079B4B4505D2591C079134
:103BC0001A70F8E7CDF81C904046079B159AA3EBB6
:103BD0000803136008B0BDE8F087F7B50029B4BF4B
:103BE0002D232B230446B8BF4942092904F8022B90
:103BF000437021DD0DF107031F460A2691FBF6F500
:103C000006FB1511092D01F1300103F8011C03F128
:103C1000FF32294609DC3031023B02F8011CBB426D
:103C2000224604D3101A03B0F0BD1346E6E713F89A
:103C3000012B04F8012BF2E7302319448370021D95
:103C4000C170EFE72DE9F04F91B00C461A9F9346F3
:103C50001E46054601F0E4F8036818460993FCF790
:103C6000FBFC00230E933B680A90073323F0070305
:103C700003F1080294F81880D4F800A03A60D3E960
:103C80000023C4E91223D4E9127929F000430B93ED
:103C90004FF0FF32A64B38460B99FDF73BF968BB56
:103CA0004FF0FF32A24B38460B99FDF715F928BBB0
:103CB0000022002338464946FDF704F910B12D23B0
:103CC00084F843309B4F9C4BB8F1470F98BF1F4679
:103CD00003234FF0000923612AF0040323600096B8
:103CE0005B460FAA2146284600F0E2F9013040F079
:103CF00090804FF0FF3011B0BDE8F08F3A464B4650
:103D000038464946FDF706F910B18C4F8C4BDBE77E
:103D100063684AF48062591C0DA80EA940D106239D
:103D200063604FF0000C0DF13303CDE901236368AC
:103D30002260CDE9030800933A464B46CDE9051CC5
:103D40002846FFF7EEFE08F0DF03472B074609D1B0
:103D50000D9BD81C02DB6268934247DDA8F1020884
:103D60005FFA88F8B8F1650F0D9924D801394246F9
:103D700004F150000D91FFF730FF0E9A81461318A1
:103D8000012A236102DC2268D10701D501332361B6
:103D90009DF83330002BA2D02D2384F843309EE7CA
:103DA000B8F1670F00F06E81B8F1470FB9D1002B61
:103DB000B7D10123B4E7B8F1660F19D100296368C0
:103DC0000CDD216113B92268D20702D501330B44FF
:103DD00023610D9B4FF00009A365D9E713B9226851
:103DE000D00701D50233F3E70123F1E74FF067086D
:103DF000DDE90D32934205DB22682361D107E8D566
:103E00000133E5E7002BCCBF0123C3F102031344C8
:103E1000DEE723685A0507D423693A4659462846FF
:103E2000B047013029D164E7B8F1650F40F2D7807F
:103E3000D4E9120100220023FDF73AF888B30123E8
:103E4000404A59462846B04701303FF452AFDDE9B9
:103E50000D239A4202DB2368D8070ED5DDE909233A
:103E600059462846B04701303FF443AF002704F1DC
:103E70001A080E9B013BBB4209DC23689F0700F137
:103E8000FD80E0680F9B9842B8BF184633E70123D6
:103E9000424659462846B04701303FF42AAF013721
:103EA000E7E70D9B002B2BDC0123264A59462846C9
:103EB000B04701303FF41DAF0D9B23B90E9B13B9E2
:103EC0002368D907D9D5DDE9092359462846B047E3
:103ED00001303FF40EAF4FF0000804F11A090D9BBA
:103EE0005B42434501DC0E9B97E701234A46594656
:103EF0002846B04701303FF4FCAE08F10108EEE778
:103F00000E9AA36D9A42A8BF1A46002A904607DD72
:103F1000134659463A462846B04701303FF4E9AEC9
:103F200004F11A034FF0000A28EAE8780B9315E031
:103F3000FFFFEF7F805500087C550008885500087A
:103F4000845500088C55000801230B9A59462846D1
:103F5000B04701303FF4CDAE0AF1010AD4F85890D1
:103F6000A9EB08035345EFDCDDE90D239A424F44EA
:103F700014DB2368DA0711D40E9B0D99A3EB090219
:103F8000A3EB01099145A8BF9146B9F1000F0DDCE3
:103F9000002729EAE97904F11A0818E0DDE9092384
:103FA00059462846B0470130E6D1A2E64B463A468C
:103FB00059462846B0470130EAD19AE601234246E5
:103FC00059462846B04701303FF493AE0137DDE94A
:103FD0000D239B1AA3EB0903BB42EFDC4DE70E9ABE
:103FE000012A01DCDB0738D501233A465946284629
:103FF000B04701303FF47DAEDDE90923594628463C
:10400000B047013007F101073FF473AED4E9120164
:104010000E9B002203F1FF380023FCF749FFC0B9D3
:1040200043463A4659462846B04701300DD160E62E
:104030000123424659462846B04701303FF459AE65
:1040400001370E9B013BBB42F2DC4B4604F15002B0
:10405000E4E6002704F11A08F3E70123E1E701236E
:10406000424659462846B04701303FF442AE013738
:10407000E3680F9A9B1ABB42F1DC02E7002704F1C8
:104080001908F5E7002B3FF494AE4FF0000CCDE992
:10409000051C0DF133012260CDE90308CDE90121B2
:1040A00000933A464B462846FFF73BFD07464FE64E
:1040B0002DE9F04791461F468A680B6906469342F0
:1040C000B8BF1346C9F8003091F843200C46DDF81C
:1040D000208012B10133C9F800302368990642BF2D
:1040E000D9F800300233C9F80030256815F006050C
:1040F00007D104F1190AE368D9F800209B1AAB42F2
:1041000029DC94F843302268003318BF012392065B
:104110002ED404F1430239463046C047013021D045
:104120002368E56803F00603042B18BF0025D9F8BF
:1041300000204FF0000908BFAD1AA368226908BF2C
:1041400025EAE5759342C4BF9B1AED181A344D4514
:104150001AD1002008E00123524639463046C047B4
:10416000013003D14FF0FF30BDE8F0870135C2E7E1
:104170003020E11881F843005A1C94F8451022447D
:10418000023382F84310C4E7012322463946304601
:10419000C0470130E6D009F10109D8E72DE9F74F12
:1041A00003690C698046A342C0F28480013C01F19E
:1041B000140700F1140657F8245056F8240001356E
:1041C000B0FBF5F54FEA840C06EB0C0307EB0C098A
:1041D00001939DB34FF0000A3846B646D34650F8D7
:1041E000042B93B205FB03A3120C4FEA134A05FB01
:1041F00002A29BB2ABEB0303DEF800B04FEA124A17
:104200001FFA8BFB5B441FFA82FBDEF8002081451E
:10421000CBEB124202EB23429BB243EA02434FEA4A
:10422000224B4EF8043BDAD256F80C3033B9019BDE
:10423000043B9E421A4631D3C8F81040404601F074
:1042400019F8002826DB30464FF0000C013557F8EE
:10425000041BD0F800E08BB2ACEB03031FFA8EF224
:1042600013440A0CC2EB1E4202EB23429BB243EA08
:104270000243B9454FEA224C40F8043BE7D256F8D6
:10428000242006EB84032AB9043B9E421A460BD332
:10429000C8F81040284603B0BDE8F08F1268043B10
:1042A000002AC9D1013CC4E71268043B002AEFD1BF
:1042B000013CEAE70020EEE72DE9F04F16461F46E5
:1042C000456A95B00446DDF88480CDE902673DB9C2
:1042D000102000F0B3FD6062C0E901550560C560C3
:1042E000636A196851B15A68012393404A608B6030
:1042F000204600F0DFFD0022636A1A603B1EAFBF5C
:104300000023012223F000430393ACBFC8F8003020
:10431000C8F80020AE4BDDF80C8033EA08031BD14F
:1043200042F20F73209A1360029B23B9C8F3130063
:10433000002800F04585229B53B9A64B21E0A64BEF
:1043400006930833229A1360069815B0BDE8F08FE3
:10435000A04B06930333F5E7DDE902670022002353
:1043600030463946FCF7A4FD824660B10123209A0D
:104370001360229B002B00F02085984B229A13603B
:10438000013B0693E0E712AB019313AB0093324677
:104390003B46204600F0E6FFC8F30A558346002D51
:1043A0007DD0B046C7F3130343F07F5949F4401959
:1043B000A5F2FF35CDF840A00022894B4046494682
:1043C000FCF756F97CA3D3E90023FCF709FB7CA397
:1043D000D3E90023FCF74EF9064628460F46FCF7C2
:1043E00095FA79A3D3E90023FCF7FAFA02460B46C3
:1043F00030463946FCF73EF906460F46FCF7A0FD6D
:1044000000228246002330463946FCF75BFD48B166
:104410005046FCF77BFA32463B46FCF749FD08B9AB
:104420000AF1FF3ABAF1160F5AD8DDE902236D49B5
:1044300001EBCA01D1E90001FCF762FD002851D06F
:1044400000230AF1FF3A0D93129B5D1B6B1E07932D
:1044500043BF0023C5F1010907934FF00009BAF1EA
:10446000000F41DB079BCDF830A053440793002396
:1044700008931E9B092B00F28F80052BC4BF043BC1
:104480001E931E9BC8BF0025A3F10203D8BF0125C0
:10449000032B00F28D80DFE803F07B7D2F6FDDE9D9
:1044A00012531D4405F23240202813DDC0F14000B4
:1044B000029B08FA00F805F2124023FA00F048EADD
:1044C0000000FCF713FA01238046A1F1F879013DC1
:1044D000109371E7029BC0F1200003FA00F0F0E7AF
:1044E0000123B0E70D90AFE7CAF100030893002362
:1044F000A9EB0A090C93BCE7012309931F9B002B2E
:1045000074DD984604930022666A7260042202F108
:104510001400984271686ED9204600F097FC636AD7
:1045200030601B68B8F10E0F069300F2ED80002D8D
:1045300000F0EA80DDE90223BAF1000FCDE90E2395
:1045400077DD284A0AF00F034FEA2A1602EBC3036D
:10455000F006D3E90023CDE90A2368D5DDE90E0191
:10456000214B0325D3E90823FCF764FBCDE90201C5
:1045700006F00F061C4F4FE0012309931F9B534485
:1045800003F1010804934346012BB8BF0123BAE7A6
:104590000023B2E70023F0E70125002309951E93CD
:1045A0004FF0FF3300220493984612231F92AAE78C
:1045B00001230993F4E700BF61436F63A787D23FEC
:1045C000B3C8608B288AC63FFB799F501344D33F02
:1045D0000000F07F975500088E5500088D550008A3
:1045E0000000F83FC8550008A055000801230493B7
:1045F00098461A46DAE701317160520087E7F10701
:1046000008D5DDE90A01D7E90023FCF7E9F9CDE98E
:104610000A01013576100837002EF0D1DDE90A23B2
:10462000DDE90201FCF706FBCDE902011BE00225F2
:10463000A0E700F0A480DDE90E01CAF10006A04B5E
:1046400006F00F0203EBC203D3E90023FCF7C8F91D
:1046500002250023CDE902019A4F3611002E40F0C9
:104660008380002BE0D10D9B002B00F08A80DDE9D8
:104670000223CDE90A23DDE90A010022924BFCF76F
:1046800021FC00287DD0B8F1000F7AD0049B002BCC
:1046900036DDDDE90A0100228C4BFCF7A1F9CDE9FA
:1046A0000201049E0AF1FF3701352846FCF72EF976
:1046B000DDE90223FCF794F90022854BFBF7DAFFD2
:1046C000A1F15075CDE90A010B95002E5CD1DDE911
:1046D000020100227F4BFBF7CBFF0A9A2B46CDE964
:1046E0000201FCF70DFC002840F08182DDE90201A7
:1046F0000A9A05F10043FCF7E5FB002840F07582BB
:10470000DDE90E23CDE90223139B002BC0F24B8180
:10471000BAF10E0F00F34781694B03EBCA03D3E9EB
:104720000023CDE904231F9B002B80F2D780B8F132
:10473000000F00F3D38040F05782DDE9040100222E
:10474000644BFCF74DF9DDE90223FCF7CFFB46464D
:104750004746002840F02D82069B069A5D1C3123B7
:104760000AF1010A137028E2F20705D5D7E9002300
:10477000FCF736F901230135761008376EE702257C
:1047800071E75746464690E74D4B03EBC60353E9A6
:104790000201099B002B48D002460B4600204E49DF
:1047A000FCF748FADDE90A23FBF762FFCDE90A01CD
:1047B000069DDDE90201FCF7C3FB1190FCF7A6F8AA
:1047C00002460B46DDE90201FBF752FF119BCDE9E2
:1047D0000201303305F8013BDDE90A23FCF772FBE7
:1047E000002863D1DDE9022300203749FBF740FFB1
:1047F000DDE90A23FCF766FB002840F0B580069B44
:10480000EB1A9E427FF77CAFDDE90A0100222F4BB5
:10481000FCF7E6F80022CDE90A01DDE902012B4BA5
:10482000FCF7DEF8CDE90201C3E7DDE90A23FCF776
:10483000D7F8069BCDE90A019D191E46DDE9020164
:10484000FCF77EFB1190FCF761F802460B46DDE9B0
:104850000201FBF70DFF119BCDE90201303306F891
:10486000013BAE424FF0000224D1DDE90A011A4BB0
:10487000FBF700FF02460B46DDE90201FCF740FBB7
:10488000002871D1DDE90A2300201349FBF7F0FE6F
:1048900002460B46DDE90201FCF714FB00283FF459
:1048A0002FAF15F8013C6A1E302B01D0BA464AE002
:1048B0001546F6E7054BFCF793F8CDE90201BDE795
:1048C000C8550008A05500080000F03F0000244033
:1048D00000001C40000014400000E03F069DDDE9A0
:1048E0000267DDE9042330463946FCF7A3F9FCF7FB
:1048F00027FB8146FCF70AF8DDE90423FCF770F892
:1049000002460B4630463946FBF7B2FE09F1300647
:1049100005F8016B069E0246AE1BB0450B4635D12D
:10492000FBF7A8FEDDE9042306460F46FCF7E8FA8C
:10493000C8B9DDE9042330463946FCF7B9FA10B1AD
:1049400019F0010F0FD15946204600F0B3FA0023A9
:10495000209A2B700AF101031360229B002B3FF475
:10496000F3AC1D60F0E4574615F8012C6B1E392A94
:1049700006D1069A9A4207D13023137013460137A5
:104980001A7801321A7091E71D46EDE70022994B23
:10499000FCF726F80022002306460F46FCF788FAAB
:1049A00000289ED0CFE7099A002A00F088801E9A3E
:1049B000012A6DDC109A002A66D003F233434D467B
:1049C000089E079A01211A4420469944079200F054
:1049D00011FB0746002D0BDD079B002B08DDAB42CA
:1049E000A8BF2B46079AA9EB0309ED1AD31A079320
:1049F000089BEBB1099B002B65D08EB1394632463E
:104A0000204600F095FB5A4601460746204600F036
:104A1000FAFA59460A90204600F04CFA0A9B9B4647
:104A2000089B9A1B04D05946204600F081FB834620
:104A30000121204600F0DEFA0C9B0646002B00F018
:104A4000C6811A460146204600F072FB1E9B0646B0
:104A5000012B3EDC029B002B37D1039BC3F31303D6
:104A6000002B34D1039B23F000431B0D1B052BB1FE
:104A7000079B09F1010901330793012308930C9B5C
:104A8000002B28D101202EE0129BC3F1360396E7BC
:104A9000089B08F1FF36B342B7BF089B9E1BF21A72
:104AA0000C9BBFBF08969B180C930026B8F1000F13
:104AB000B9BFA9EB080500234D46434681E7089E90
:104AC0004D46099F86E7089AADE70023D6E7029B8B
:104AD000D4E700230893336906EB8303186900F0D9
:104AE0003BFAC0F12000079B184410F01F0047D08C
:104AF000C0F12003042B3BDD079BC0F11C00814467
:104B0000054403440793B9F1000F05DD59464A46B1
:104B1000204600F05BFB8346079B002B05DD3146FA
:104B20001A46204600F052FB06460D9B53B3314611
:104B3000584600F09FFB002824DA002359460A2239
:104B4000204600F0CEF9099B0AF1FF3A8346002B7C
:104B500000F04481002339460A22204600F0C1F9C2
:104B6000049B0746002B4DDC1E9B022B4ADD11E007
:104B7000C9D0079A1C331A4499441D441346C1E70F
:104B80000346F6E7B8F1000F36DC1E9B022B33DD3F
:104B9000CDF81080049B63B931460522204600F011
:104BA000A0F901460646584600F064FB00283FF78E
:104BB000D3AD1F9B069D6FEA030A4FF000093146F3
:104BC000204600F077F9002F3FF4BDAEB9F1000F99
:104BD00005D0B94503D04946204600F06BF9394667
:104BE000204600F067F9AEE600263746E1E7BA4610
:104BF0003746B1E500002440099BCDF81080002B1A
:104C000000F0F380002D05DD39462A46204600F0ED
:104C1000DDFA0746089B002B4CD07968204600F04F
:104C200015F905463A6907F10C01023292000C3081
:104C3000FEF764FF01222946204600F0C7FAB94674
:104C40000746069B0793029B03F001030893314636
:104C50005846FFF7A3FA4946054600F13008584682
:104C600000F008FB3A4602903146204600F01CFB5B
:104C7000C368024603BB01460990584600F0FAFAA1
:104C80000346099A11462046099300F013F9099B3F
:104C9000A3B91E9A92B9089A82B9B8F1390F29D0EE
:104CA000029B002B01DD05F13108079B5D1C83F899
:104CB000008084E73846C2E70123E3E7029A002A2E
:104CC00004DB23D11E9A0ABB089AFAB9002BECDD4B
:104CD00059460122204600F079FA3146834600F019
:104CE000C9FA002803DCE0D118F0010FDDD0B8F1DB
:104CF000390FD8D1079B079A5D1C3923137015F81B
:104D0000013C6A1E392B4DD0013352E0079A002B2B
:104D100002F1010506DDB8F1390FEBD008F1010809
:104D2000079BC4E7069B049AEB1A934205F8018C93
:104D300021D0594600230A22204600F0D2F8B94576
:104D400083464FF000034FF00A024946204605D142
:104D500000F0C7F881460746079578E700F0C1F8EC
:104D60003946814600230A22204600F0BAF8074659
:104D7000F2E74FF0000959460122204600F026FADA
:104D80003146834600F076FA0028B8DC02D118F0EC
:104D9000010FB4D115F8013C6A1E302B7FF40FAF20
:104DA0001546F7E7069B934205D13123069A0AF18F
:104DB000010A137003E71546A1E7174BFFF7E1BAA5
:104DC000229B002B7FF4BBAA144BFFF7DABA1E9B81
:104DD000012B7FF73FAE0C9B089353E6049B002BFF
:104DE00003DC1E9B022B3FF7D5AE069D314658468D
:104DF000FFF7D4F9069B00F1300805F8018B049AFF
:104E0000EB1A9A42B5DD594600230A22204600F0EB
:104E100068F88346EAE700BF8C5500088E55000805
:104E2000044B1B68186A044B002808BF1846F03072
:104E3000704700BF0C00002070000020024B0146AC
:104E4000186800F0EDBA00BF0C00002070B5456A8C
:104E500004460E463DB91020FFF7F0FF6062C0E93E
:104E600001550560C560656AEB6883B1636ADB68FC
:104E700053F82600B8B9012101FA06F56A1D92001F
:104E8000204600F0BEFA60B1C0E901650EE02122C3
:104E90000421204600F0B5FA636AE860DB68002B65
:104EA000E4D1002070BD026843F826200023C0E949
:104EB0000333F7E770B5446A06460D463CB9102047
:104EC000FFF7BCFF7062C0E901440460C4603DB1FB
:104ED000736A6A68DB6853F82210296043F822502D
:104EE00070BD2DE9F0411F4606460C4600230D69B2
:104EF00001F1140CDCF80000013381B202FB0171F6
:104F0000000C0F0C02FB007089B201EB00419D42C6
:104F10004FEA10474CF8041BECDCD7B1A368AB4256
:104F200012DC616830460131FFF790FF804622694C
:104F300004F10C01023292000C30FEF7DFFD214635
:104F40003046FFF7B7FF444604EB850301355F6148
:104F500025612046BDE8F081020C12040346B2B977
:104F60000304102013F07F4F04BF1B02083013F01E
:104F7000704F04BF1B01043013F0404F04BF9B006F
:104F80000230002B06DB5B0003D5013070470020A8
:104F9000E8E7202070470368014613F007020BD0B2
:104FA000DA0723D4980749BF5B089B0801200B60F0
:104FB0005CBF0B600220704798B2A8B910201B0C90
:104FC00013F0FF0F04BF1B0A08301A0704BF1B09A8
:104FD00004309A0704BF9B080230DA0702D45B084A
:104FE00006D001300B6070471046E9E7002070479B
:104FF0002020704710B50C460121FFF727FF012242
:105000004461026110BD2DE9F74F14460A69236916
:1050100088469A42BEBF0B46A0461C46D8F8107080
:10502000D4F81090D8F80830D8F8041007EB090627
:10503000B342B8BF0131FFF709FF00F114052B4659
:10504000002205EB860E734516D304F1140208F115
:10505000140102EB890301EB87070093009B019287
:1050600093420CD8002E03DD5EF8043D002B5DD08A
:10507000066103B0BDE8F08F43F8042BE3E7B2F814
:1050800000B0BBF1000F23D08946AC464FF00008BA
:1050900059F8044BDCF800A0A3B21FFA8AFA0BFB04
:1050A00003A34FEA144ADCF8004043444FEA144893
:1050B0000BFB0A84E24604EB13449BB243EA04432D
:1050C0004F454FEA14484AF8043B2BD8CCF80480EB
:1050D000019B0432B3F802A0BAF1000F20D0894638
:1050E000A8464FF0000B2B68B9F800C0B8F8024092
:1050F0009BB20AFB0C44C4465C4443EA04434CF8AC
:10510000043B59F8043BB8F804B01B0C0AFB03B38A
:105110004F4503EB14434FEA134B05D8C8F804304E
:1051200004359BE7D446B3E7E046DDE7013E99E767
:105130002DE9F843154612F0030206460F4607D044
:10514000214C013A002354F82220FFF7CAFE0746FB
:10515000AD1035D0746A3CB91020FFF76FFE706255
:10516000C0E901440460C460D6F82480D8F808403F
:105170004CB940F271213046FFF73CFF0023044652
:10518000C8F8080003604FF00008EB070AD539465D
:1051900022463046FFF737FF814639463046FFF753
:1051A00089FE4F466D100BD0206838B92246214643
:1051B0003046FFF728FF2060C0F800800446E4E78F
:1051C0003846BDE8F88300BF905600082DE9F04747
:1051D0000C460746164623694FEA621A0AEB030992
:1051E0004968A36809F10105AB4232DB3846FFF795
:1051F0002DFE002380461A4600F1140153452BDB97
:1052000020692AEAEA7A04F1140316F01F0201EB7E
:105210008A0103EB800C25D00020C2F1200E8A46C3
:105220001E68964030434AF8040B53F8040B9C4523
:1052300020FA0EF014D8486008B109F10205013DCA
:105240003846C8F810502146FFF734FE4046BDE806
:10525000F08701315B00C7E741F823200133CDE738
:105260005146DCE7043953F8042B9C4541F8042FE0
:10527000F9D8E4E703690A6930B59B1A0CD19200AA
:10528000143014318418114454F8045D51F8042D7D
:10529000954203D005D30123184630BDA042F3D375
:1052A000FAE74FF0FF33F7E72DE9F0470D460746E1
:1052B000114628461446FFF7DDFF061E08D1314689
:1052C0003846FFF7C3FD0123C0E90436BDE8F08787
:1052D000A4BF23462C4638466168A6BF1D4600265B
:1052E0000126FFF7B3FD4FF0000EC6602B6926695B
:1052F00004F1140205F1140902EB860709EB830897
:1053000000F1140152F804AB59F8045B1FFA8AF358
:105310007344ACB21B1B2C0CC4EB1A4404EB2344A7
:105320009BB24FEA244EC84543EA0444944641F8F0
:10533000044BE7D8BC4504D351F8043D83B1066162
:10534000C4E75CF8044BA2B27244131403EB144399
:1053500092B242EA03424FEA234E41F8042BE9E7B6
:10536000013EE9E72DE9F3411C46DDE9086501212D
:105370009046FFF76BFDC4F31302C4F30A540746CB
:1053800034BB0192B8F1000227D002A840F8082DE2
:10539000FFF701FE0099F0B1019AC0F1200302FA73
:1053A00003F30B43C2407B610192019B002B14BFAE
:1053B00002210121BB613961C4B1A4F23344044428
:1053C0003460C0F135002860384602B0BDE8F08195
:1053D00042F48012D5E77961E7E701A8FFF7DBFD2A
:1053E0000121019B39617B612030E5E7A0F2324069
:1053F00007EB810330601869FFF7AEFDC0EB411089
:10540000E1E738B502FB01F4214600F009F8054652
:1054100018B122460021FEF77CFB284638BD00006B
:1054200070B5CD1C25F0030508350C2D38BF0C25B3
:10543000002D064601DBA94203D90C23336000206E
:1054400070BD00F069F8214A1468214691B9204CDA
:1054500023681BB9304600F03DF8206029463046ED
:1054600000F038F8431C24D10C233046336000F0A0
:1054700054F8E4E70B685B1B18D40B2B0FD90B60B7
:10548000CC18CD50304600F048F804F10B00231D35
:1054900020F00700C31AD3D05A42E250D0E74B683D
:1054A0008C4216BF636013600C46EBE70C464968FC
:1054B000CCE7C41C24F00304A04205D0211A3046D6
:1054C00000F008F80130CFD02560DBE704020020AF
:1054D0000802002038B50023054C05460846236025
:1054E000FEF75CFA431C02D1236803B12B6038BD80
:1054F0005404002082B001B901A942B14BB1137824
:105500000B601278101C18BF012002B070471046C3
:10551000FBE76FF00100F8E77047704749B1FF2AD9
:105520008BBF8A230A700360012088BF4FF0FF30D1
:105530007047084670470000F8B500BFF8BC08BCCB
:105540009E467047F8B500BFF8BC08BC9E46704741
:1055500002030405060708090A0B0C0D0E0F1010B4
:10556000010200000000000000000000010203042E
:10557000060708090000000001020304494E460026
:10558000696E66004E414E006E616E003000496EDD
:1055900066696E697479004E614E0000000000007B
:1055A0000080E03779C34143176E05B5B5B893461F
:1055B000F5F93FE9034F384D321D30F94877825AEB
:1055C0003CBF737FDD4F1575000000000000F03F09
:1055D00000000000000024400000000000005940CE
:1055E0000000000000408F40000000000088C34021
:1055F00000000000006AF8400000000080842E4196
:1056000000000000D01263410000000084D79741E1
:105610000000000065CDCD41000000205FA00242E7
:10562000000000E876483742000000A2941A6D425C
:10563000000040E59C30A2420000901EC4BCD6424F
:1056400000003426F56B0C430080E03779C34143FA
:1056500000A0D8855734764300C84E676DC1AB4370
:10566000003D9160E458E143408CB5781DAF15448E
:1056700050EFE2D6E41A4B4492D54D06CFF0804469
:10568000F64AE1C7022DB544B49DD9794378EA447E
:1056900005000000190000007D0000004300504F8D
:1056A000534958002E0000202020202020202020B8
:1056B00028282828282020202020202020202020C2
:1056C00020202020202020881010101010101010F2
:1056D0001010101010101004040404040404040436
:1056E00004101010101010104141414141410101BE
:1056F000010101010101010101010101010101019A
:1057000001011010101010104242424242420202A7
:105710000202020202020202020202020202020269
:105720000202101010102000000000000000000015
:105730000000000000000000000000000000000069
:105740000000000000000000000000000000000059
:105750000000000000000000000000000000000049
:105760000000000000000000000000000000000039
:105770000000000000000000000000000000000029
:105780000000000000000000000000000000000019
:105790000000000000000000000000000000000009
:0857A000000000000000000001
:0457A80035010008BF
:0457AC0011010008DF
:1057B000100000000100000000A24A0410000020B8
:1057C00000000000000000000000000000000000D9
:1057D00000000000000000000000000000000000C9
:1057E00000000000000000000000000000000000B9
:1057F00000000000000000000000000000000000A9
:105800000000000000000000000000000000000098
:105810000000000000000000000000000000000088
:105820004300000000000000000000000000000035
:105830000000000000000000000000000000000068
:105840004300000000000000000000000000000015
:105850000000000000000000000000000000000048
:1058600043000000000000000000000000000000F5
:105870000000000000000000000000000000000028
:1058800043000000000000000000000000000000D5
:105890000000000000000000000000000000000008
:1058A00043000000000000000000000000000000B5
:1058B00000000000000000000000000000000000E8
:1058C0004300000000000000000000000000000095
:1058D00000000000000000000000000000000000C8
:1058E0004300000000000000000000000000000075
:1058F00000000000000000000000000000000000A8
:105900001D550008F554000800000000A6560008C8
:10591000A4560008A5560008A5560008A55600087C
:10592000A5560008A5560008A5560008A55600086B
:10593000A5560008A5560008FFFFFFFFFFFFFFFF69
:10594000FFFFFFFFFFFF00000100415343494900F3
:105950000000000000000000000000000000000047
:1059600000000000000000000000415343494900CE
:105970000000000000000000000000000000000027
:0C5980000000000000000000000000001B
:0400000508003A5D58
:00000001FF
