:020000040800F2
:1000000000500020BD380008493700085537000867
:100010005B37000861370008673700080000000000
:100020000000000000000000000000006D37000824
:100030007937000800000000853700089137000874
:100040000539000805390008053900080539000898
:100050000539000805390008053900080539000888
:100060000539000805390008053900080539000878
:100070000539000805390008053900080539000868
:100080000539000805390008053900080539000858
:100090000539000805390008053900080539000848
:1000A0000539000805390008053900080539000838
:1000B0000539000805390008053900080539000828
:1000C0000539000805390008053900080539000818
:1000D000053900089D370008053900080539000872
:1000E000DD37000805390008053900080000000068
:1000F0000000000000000000000000000000000000
:0C01000000000000000000005FF808F1A3
:1001100010B5054C237833B9044B13B10448AFF341
:1001200000800123237010BDE801002000000000C2
:10013000E059000808B5034B1BB103490348AFF36E
:10014000008008BD00000000EC010020E05900081C
:1001500081F0004102E000BF83F0004330B54FEA78
:1001600041044FEA430594EA050F08BF90EA020FE5
:100170001FBF54EA000C55EA020C7FEA645C7FEA78
:10018000655C00F0E2804FEA5454D4EB5555B8BF9B
:100190006D420CDD2C4480EA020281EA030382EA0C
:1001A000000083EA010180EA020281EA0303362D9E
:1001B00088BF30BD11F0004F4FEA01314FF4801C71
:1001C0004CEA113102D0404261EB410113F0004F83
:1001D0004FEA03334CEA133302D0524263EB43033A
:1001E00094EA050F00F0A780A4F10104D5F1200ED8
:1001F0000DDB02FA0EFC22FA05F2801841F1000133
:1002000003FA0EF2801843FA05F359410EE0A5F106
:1002100020050EF1200E012A03FA0EFC28BF4CF037
:10022000020C43FA05F3C01851EBE37101F00045ED
:1002300007D54FF0000EDCF1000C7EEB00006EEBFA
:100240000101B1F5801F1BD3B1F5001F0CD3490884
:100250005FEA30004FEA3C0C04F101044FEA4452DB
:1002600012F5800F80F09A80BCF1004F08BF5FEA62
:10027000500C50F1000041EB045141EA050130BD42
:100280005FEA4C0C404141EB010111F4801FA4F1E5
:100290000104E9D191F0000F04BF01460020B1FA3A
:1002A00081F308BF2033A3F10B03B3F120020CDA72
:1002B0000C3208DD02F1140CC2F10C0201FA0CF050
:1002C00021FA02F10CE002F11402D8BFC2F1200CB5
:1002D00001FA02F120FA0CFCDCBF41EA0C0190406B
:1002E000E41AA2BF01EB0451294330BD6FEA0404B4
:1002F0001F3C1CDA0C340EDC04F11404C4F120029F
:1003000020FA04F001FA02F340EA030021FA04F3B0
:1003100045EA030130BDC4F10C04C4F1200220FA07
:1003200002F001FA04F340EA0300294630BD21FA45
:1003300004F0294630BD94F0000F83F4801306BF0B
:1003400081F480110134013D4EE77FEA645C18BFFF
:100350007FEA655C29D094EA050F08BF90EA020F96
:1003600005D054EA000C04BF1946104630BD91EA8E
:10037000030F1EBF0021002030BD5FEA545C05D191
:100380004000494128BF41F0004130BD14F58004D0
:100390003CBF01F5801130BD01F0004545F0FE4144
:1003A00041F470014FF0000030BD7FEA645C1ABF79
:1003B000194610467FEA655C1CBF0B46024650EAB0
:1003C000013406BF52EA033591EA030F41F40021DC
:1003D00030BD00BF90F0000F04BF0021704730B562
:1003E0004FF4806404F132044FF000054FF0000137
:1003F00050E700BF90F0000F04BF0021704730B5F8
:100400004FF4806404F1320410F0004548BF4042CC
:100410004FF000013EE700BF42004FEAE2014FEA21
:1004200031014FEA02701FBF12F07F4393F07F4FFC
:1004300081F06051704732F07F4208BF704793F0FF
:100440007F4F04BF41F40021704730B54FF4607412
:1004500001F0004521F000411CE700BF50EA010215
:1004600008BF704730B54FF000050AE050EA0102BE
:1004700008BF704730B511F0004502D5404261EB2E
:1004800041014FF4806404F132045FEA915C3FF46F
:10049000D8AE4FF003025FEADC0C18BF03325FEA0C
:1004A000DC0C18BF033202EBDC02C2F1200300FABD
:1004B00003FC20FA02F001FA03FE40EA0E0021FAE2
:1004C00002F11444BDE600BF80F0004002E000BF2E
:1004D00081F0004142001FBF5FEA410392EA030F2F
:1004E0007FEA226C7FEA236C6AD04FEA1262D2EB79
:1004F0001363C1BFD218414048404140B8BF5B427E
:10050000192B88BF704710F0004F40F4000020F016
:100510007F4018BF404211F0004F41F4000121F02C
:100520007F4118BF494292EA030F3FD0A2F1010276
:1005300041FA03FC10EB0C00C3F1200301FA03F1B4
:1005400000F0004302D5494260EB4000B0F5000FD7
:1005500013D3B0F1807F06D340084FEA310102F196
:100560000102FE2A51D2B1F1004F40EBC25008BF48
:1005700020F0010040EA03007047490040EB000012
:1005800010F4000FA2F10102EDD1B0FA80FCACF141
:10059000080CB2EB0C0200FA0CF0AABF00EBC25040
:1005A00052421843BCBFD0401843704792F0000F2E
:1005B00081F4000106BF80F400000132013BB5E781
:1005C0004FEA41037FEA226C18BF7FEA236C21D0F7
:1005D00092EA030F04D092F0000F08BF084670475C
:1005E00090EA010F1CBF0020704712F07F4F04D12A
:1005F000400028BF40F00040704712F100723CBF3D
:1006000000F50000704700F0004343F0FE4040F466
:10061000000070477FEA226216BF08467FEA236324
:100620000146420206BF5FEA412390EA010F40F40F
:10063000800070474FF0000304E000BF10F000435B
:1006400048BF40425FEA000C08BF704743F0964342
:1006500001464FF000001CE050EA010208BF70475D
:100660004FF000030AE000BF50EA010208BF7047E4
:1006700011F0004302D5404261EB41015FEA010CF9
:1006800002BF84460146002043F0B64308BFA3F1F1
:100690008053A3F50003BCFA8CF2083AA3EBC253D3
:1006A00010DB01FA02FC634400FA02FCC2F12002F2
:1006B000BCF1004F20FA02F243EB020008BF20F029
:1006C0000100704702F1200201FA02FCC2F120028F
:1006D00050EA4C0021FA02F243EB020008BF20EA84
:1006E000DC7070474FF0FF0C1CEAD0521EBF1CEAB2
:1006F000D15392EA0C0F93EA0C0F6FD01A4480EAA0
:10070000010C400218BF5FEA41211ED04FF0006388
:1007100043EA501043EA5111A0FB01310CF00040B4
:10072000B1F5000F3EBF490041EAD3715B0040EADA
:10073000010062F17F02FD2A1DD8B3F1004F40EBAA
:10074000C25008BF20F00100704790F0000F0CF07D
:10075000004C08BF49024CEA502040EA51207F3A41
:10076000C2BFD2F1FF0340EAC250704740F400001C
:100770004FF00003013A5DDC12F1190FDCBF00F00D
:1007800000407047C2F10002410021FA02F1C2F1BB
:10079000200200FA02FC5FEA310040F1000053EA57
:1007A0004C0308BF20EADC70704792F0000F00F0A5
:1007B000004C02BF400010F4000F013AF9D040EAAB
:1007C0000C0093F0000F01F0004C02BF490011F43F
:1007D000000F013BF9D041EA0C018FE70CEAD1533D
:1007E00092EA0C0F18BF93EA0C0F0AD030F0004CBD
:1007F00018BF31F0004CD8D180EA010000F0004071
:10080000704790F0000F17BF90F0004F084691F02E
:10081000000F91F0004F14D092EA0C0F01D1420268
:100820000FD193EA0C0F03D14B0218BF084608D131
:1008300080EA010000F0004040F0FE4040F400007B
:10084000704740F0FE4040F4400070474FF0FF0C0E
:100850001CEAD0521EBF1CEAD15392EA0C0F93EA55
:100860000C0F69D0A2EB030280EA010C49024FEAA7
:10087000402037D04FF0805343EA111143EA101360
:100880000CF000408B4238BF5B0042F17D024FF418
:10089000000C8B4224BF5B1A40EA0C00B3EB510FF3
:1008A00024BFA3EB510340EA5C00B3EB910F24BFDC
:1008B000A3EB910340EA9C00B3EBD10F24BFA3EB61
:1008C000D10340EADC001B0118BF5FEA1C1CE0D129
:1008D000FD2A3FF650AF8B4240EBC25008BF20F0DC
:1008E000010070470CF0004C4CEA50207F32C2BF30
:1008F000D2F1FF0340EAC250704740F400004FF0CD
:100900000003013A37E792F0000F00F0004C02BFFD
:10091000400010F4000F013AF9D040EA0C0093F0C7
:10092000000F01F0004C02BF490011F4000F013B21
:10093000F9D041EA0C0195E70CEAD15392EA0C0F89
:1009400008D142027FF47DAF93EA0C0F7FF470AFC1
:10095000084676E793EA0C0F04D14B023FF44CAF04
:1009600008466EE730F0004C18BF31F0004CCAD199
:1009700030F000427FF45CAF31F000437FF43CAFD5
:100980005FE700BF4FEA4002B2F1FE4F0FD34FF0D6
:100990009E03B3EB12620DD94FEA002343F00043EC
:1009A00010F0004F23FA02F018BF404270474FF09A
:1009B0000000704712F1610F01D1420205D110F021
:1009C000004008BF6FF0004070474FF000007047D4
:1009D000034613F8012B002AFBD1181A013870477F
:1009E00070B54FF0FF0C4CF4E06C1CEA11541DBFC5
:1009F0001CEA135594EA0C0F95EA0C0F00F0DEF890
:100A00002C4481EA030621EA4C5123EA4C5350EA74
:100A1000013518BF52EA033541F4801143F48013C5
:100A200038D0A0FB02CE4FF00005E1FB02E506F056
:100A30000042E0FB03E54FF00006E1FB03569CF0AB
:100A4000000F18BF4EF0010EA4F1FF04B6F5007FB1
:100A500064F5407404D25FEA4E0E6D4146EB060623
:100A600042EAC62141EA55514FEAC52040EA5E50AC
:100A70004FEACE2EB4F1FD0C88BFBCF5E06F1ED856
:100A8000BEF1004F08BF5FEA500E50F1000041EB8D
:100A9000045170BD06F0004646EA010140EA02003A
:100AA00081EA0301B4EB5C04C2BFD4EB0C0541EA5C
:100AB000045170BD41F480114FF0000E013C00F371
:100AC000AB8014F1360FDEBF002001F0004170BD95
:100AD000C4F10004203C35DA0C341BDC04F11404AE
:100AE000C4F1200500FA05F320FA04F001FA05F23A
:100AF00040EA020001F0004221F0004110EBD37007
:100B000021FA04F642EB06015EEA430E08BF20EA32
:100B1000D37070BDC4F10C04C4F1200500FA04F3D5
:100B200020FA05F001FA04F240EA020001F0004167
:100B300010EBD37041F100015EEA430E08BF20EADA
:100B4000D37070BDC4F1200500FA05F24EEA020E22
:100B500020FA04F301FA05F243EA020321FA04F051
:100B600001F0004121FA04F220EA020000EBD37008
:100B70005EEA430E08BF20EAD37070BD94F0000F08
:100B80000FD101F00046400041EB010111F4801F3C
:100B900008BF013CF7D041EA060195F0000F18BFED
:100BA000704703F00046520043EB030313F4801F29
:100BB00008BF013DF7D043EA0603704794EA0C0FE3
:100BC0000CEA135518BF95EA0C0F0CD050EA4106F9
:100BD00018BF52EA4306D1D181EA030101F0004176
:100BE0004FF0000070BD50EA410606BF104619469E
:100BF00052EA430619D094EA0C0F02D150EA0136AA
:100C000013D195EA0C0F05D152EA03361CBF1046EA
:100C100019460AD181EA030101F0004141F0FE4189
:100C200041F470014FF0000070BD41F0FE4141F40D
:100C3000780170BD70B54FF0FF0C4CF4E06C1CEA0D
:100C400011541DBF1CEA135594EA0C0F95EA0C0FC2
:100C500000F0A7F8A4EB050481EA030E52EA03357D
:100C60004FEA013100F088804FEA03334FF080559E
:100C700045EA131343EA12634FEA022245EA1115CB
:100C800045EA10654FEA00260EF000419D4208BF7C
:100C9000964244F1FD0404F5407402D25B084FEA29
:100CA0003202B61A65EB03055B084FEA32024FF4D5
:100CB00080104FF4002CB6EB020E75EB030E22BF32
:100CC000B61A754640EA0C005B084FEA3202B6EBF2
:100CD000020E75EB030E22BFB61A754640EA5C00A1
:100CE0005B084FEA3202B6EB020E75EB030E22BF31
:100CF000B61A754640EA9C005B084FEA3202B6EB32
:100D0000020E75EB030E22BFB61A754640EADC00F0
:100D100055EA060E18D04FEA051545EA16754FEA52
:100D200006164FEAC30343EA52734FEAC2025FEA70
:100D30001C1CC0D111F4801F0BD141EA00014FF0FF
:100D400000004FF0004CB6E711F4801F04BF0143D0
:100D50000020B4F1FD0C88BFBCF5E06F3FF6AFAEEC
:100D6000B5EB030C04BFB6EB020C5FEA500C50F17C
:100D7000000041EB045170BD0EF0004E4EEA1131FF
:100D800014EB5C04C2BFD4EB0C0541EA045170BD06
:100D900041F480114FF0000E013C90E645EA060E4A
:100DA0008DE60CEA135594EA0C0F08BF95EA0C0F78
:100DB0003FF43BAF94EA0C0F0AD150EA01347FF4C0
:100DC00034AF95EA0C0F7FF425AF104619462CE797
:100DD00095EA0C0F06D152EA03353FF4FDAE1046FA
:100DE000194622E750EA410618BF52EA43067FF44B
:100DF000C5AE50EA41047FF40DAF52EA43057FF4DB
:100E0000EBAE12E74FF0FF3C06E000BF4FF0010CE5
:100E100002E000BF4FF0010C4DF804CD4FEA410C49
:100E20007FEA6C5C4FEA430C18BF7FEA6C5C1BD016
:100E300001B050EA410C0CBF52EA430C91EA030F97
:100E400002BF90EA020F0020704710F1000F91EAF4
:100E5000030F58BF994208BF90422CBFD8176FEAC2
:100E6000E37040F0010070474FEA410C7FEA6C5C90
:100E700002D150EA013C07D14FEA430C7FEA6C5C97
:100E8000D6D152EA033CD3D05DF8040B704700BFC3
:100E90008446104662468C461946634600E000BF11
:100EA00001B5FFF7B7FF002848BF10F1000F01BDE3
:100EB0004DF808EDFFF7F4FF0CBF012000205DF8AE
:100EC00008FB00BF4DF808EDFFF7EAFF34BF012033
:100ED00000205DF808FB00BF4DF808EDFFF7E0FFCC
:100EE00094BF012000205DF808FB00BF4DF808ED1D
:100EF000FFF7CEFF94BF012000205DF808FB00BF84
:100F00004DF808EDFFF7C4FF34BF012000205DF865
:100F100008FB00BF4FEA410C7FEA6C5C02D150EA4B
:100F2000013C0AD14FEA430C7FEA6C5C02D152EAE1
:100F3000033C02D14FF0000070474FF001007047B2
:100F40004FEA410212F5001215D211D56FF47873F1
:100F5000B3EB625212D94FEAC12343F0004343EA94
:100F6000505311F0004F23FA02F018BF404270476F
:100F70004FF00000704750EA013005D111F00040F9
:100F800008BF6FF0004070474FF00000704700BF8F
:100F900080B483B000AF786039607B68DB6A23F48B
:100FA00070023B681A437B68DA6200BF0C37BD46AB
:100FB00080BC704780B483B000AF78607B689B686A
:100FC00003F00103012B0CBF01230023DBB2184601
:100FD0000C37BD4680BC704790B585B000AF7860D7
:100FE00039600023FB731348FFF7E4FF04461248FF
:100FF000FFF7E0FF03462343002B14D13B681B6837
:10100000002B09D07B685B6823F470223B681B6867
:101010001A437B685A6008E07B685B6823F470229F
:101020007B685A6001E00123FB73FB7B1846143791
:10103000BD4690BD002401400028014080B584B029
:1010400000AF786039600023FB737868FFF7B2FF68
:101050000346002B12D17B685B6823F480723B68E7
:101060005B681A437B685A607B689B6823F4006264
:101070003B681B681A437B689A6001E00123FB739D
:10108000FB7B18461037BD4680BD80B584B000AFED
:10109000786039600023FB737868FFF78BFF0346A5
:1010A000002B31D13B685B68002B0CD07B685B6800
:1010B00023F468423B6859683B689B680B431A43BA
:1010C0007B685A6008E07B685B6823F468423B6891
:1010D0005B681A437B685A607B689B6823F46023D3
:1010E00023F481733A6811683A68D26811433A6808
:1010F00012690A431A437B689A603B685B68194629
:101100007868FFF745FF01E00123FB73FB7B18467E
:101110001037BD4680BD000080B483B000AF78605A
:10112000054B1A6804497B6813430B6000BF0C37FA
:10113000BD4680BC704700BF0004014080B483B04E
:1011400000AF7860054B1A687B68DB4303491340A6
:101150000B6000BF0C37BD4680BC704700040140E7
:1011600080B483B000AF7860054B5A6804497B684F
:1011700013434B6000BF0C37BD4680BC704700BFB7
:101180000004014080B483B000AF7860054B5A681A
:101190007B68DB43034913404B6000BF0C37BD46FF
:1011A00080BC70470004014080B483B000AF786019
:1011B000054B9A6804497B6813438B6000BF0C376A
:1011C000BD4680BC704700BF0004014080B483B0BE
:1011D00000AF7860054B9A687B68DB430349134096
:1011E0008B6000BF0C37BD4680BC704700040140D7
:1011F00080B483B000AF7860054BDA6804497B683F
:101200001343CB6000BF0C37BD4680BC704700BFA6
:101210000004014080B483B000AF7860054BDA6809
:101220007B68DB4303491340CB6000BF0C37BD46EE
:1012300080BC70470004014080B584B000AF786086
:101240000023FB737B681B79002B60D07B681B68D5
:10125000002B67D07B685B79012B0ED0022B17D057
:10126000002B20D17B681B681846FFF78BFF7B683B
:101270001B681846FFF750FF18E07B681B6818468C
:10128000FFF75CFF7B681B681846FFF769FF0DE0FE
:101290007B681B681846FFF73FFF7B681B68184692
:1012A000FFF75EFF02E00123FB7300BF7B689B79C1
:1012B000002B37D07B689B79022B0ED0032B17D0E5
:1012C000012B20D17B681B681846FFF7A3FF7B68C2
:1012D0001B681846FFF768FF25E07B681B68184607
:1012E000FFF774FF7B681B681846FFF781FF1AE061
:1012F0007B681B681846FFF757FF7B681B6818461A
:10130000FFF776FF0FE00123FB7300BF0BE07B6864
:101310001B681846FFF712FF7B681B681846FFF72B
:1013200031FF00E000BFFB7B18461037BD4680BD93
:1013300090B488B000AFF860B9607A60FB681A4674
:10134000BB681B0E13441C462268BB687B617B692B
:1013500093FAA3F33B613B69B3FA83F3DBB29B00DF
:101360000F2101FA03F3DB431A40BB68FB61FB6901
:1013700093FAA3F3BB61BB69B3FA83F3DBB29B00BF
:10138000796801FA03F31343236000BF2037BD4699
:1013900090BC704790B488B000AFF860B9607A60D4
:1013A000FB681A46BB681B0E13441C462268BB68C8
:1013B0007B617B6993FAA3F33B613B69B3FA83F3E7
:1013C000DBB29B00032101FA03F3DB431A40BB6845
:1013D000FB61FB6993FAA3F3BB61BB69B3FA83F3C7
:1013E000DBB29B00796801FA03F31343236000BF6B
:1013F0002037BD4690BC704790B488B000AFF8600D
:10140000B9607A60FB681A46BB681B0E13441C4621
:101410002268BB687B617B6993FAA3F33B613B69FC
:10142000B3FA83F3DBB29B00042101FA03F3DB433D
:101430001A40BB68FB61FB6993FAA3F3BB61BB690C
:10144000B3FA83F3DBB29B00796801FA03F3134329
:10145000236000BF2037BD4690BC704780B487B082
:1014600000AFF860B9607A60FB68DA68BB681B0A95
:10147000DB431A40BB681B0A7B617B6993FAA3F3C9
:101480003B613B69B3FA83F3DBB219467B688B405F
:101490001A43FB68DA6000BF1C37BD4680BC70474A
:1014A00080B588B000AF786039603B681B681B026C
:1014B0001B0C7B617B693B613B6993FAA3F3FB6087
:1014C000FB68B3FA83F3DBB2FB6140E00122FB6906
:1014D0009A407B691340002B36D0FB69072B06D856
:1014E00040F20112FB6902FA03F3BB6108E0FB69F9
:1014F000083B4FF0011202FA03F343F08063BB6133
:101500003B685B681A46B9697868FFF711FF3B686A
:101510001B691A46B9697868FFF7A0FF3B685B68EA
:10152000012B03D03B685B68092B0DD13B689B689E
:101530001A46B9697868FFF72DFF3B68DB681A46E1
:10154000B9697868FFF758FFFB690133FB617A6975
:10155000FB6922FA03F3002BB8D100231846203789
:10156000BD4680BD80B400AF034B5B6803F00C0345
:101570001846BD4680BC70470010024080B400AFE2
:10158000034B5B6803F0F0031846BD4680BC704710
:101590000010024080B400AF034B5B6803F4E063CB
:1015A0001846BD4680BC70470010024080B400AFB2
:1015B000034B5B6803F460531846BD4680BC70471C
:1015C0000010024080B400AF034B5B6803F480332B
:1015D0001846BD4680BC70470010024080B400AF82
:1015E000034B5B6803F470131846BD4680BC70471C
:1015F0000010024080B400AF044B5B685B0C03F04A
:1016000001031846BD4680BC704700BF0010024071
:1016100080B582B000AF786000F020F802467B68A9
:101620001A607B681B68184600F03AF802467B682F
:101630005A607B685B68184600F048F802467B6891
:101640009A607B685B68184600F054F802467B6835
:10165000DA6000BF0837BD4680BD000080B582B0AB
:1016600000AF00237B60FFF77DFF0346042B06D00D
:10167000082B07D0002B09D1084B7B6009E0074BF2
:101680007B6006E000F04AF8786002E0034B7B6084
:1016900000BF7B6818460837BD4680BD00127A003F
:1016A00080B582B000AF7860FFF768FF03461B0982
:1016B00003F00F03044AD35C1A467B68D3401846F4
:1016C0000837BD4680BD00BF3C5A000880B582B0D7
:1016D00000AF7860FFF75EFF03461B0A044AD35C45
:1016E0001A467B68D34018460837BD4680BD00BF08
:1016F0004C5A000880B582B000AF7860FFF756FF03
:101700000346DB0A044AD35C1A467B68D34018467A
:101710000837BD4680BD00BF4C5A000880B582B076
:1017200000AF00237B6000233B60FFF74BFF386076
:101730003B68002B03D0B3F5803F03D00BE00D4B8B
:101740007B600BE0FFF756FF034601330A4AB2FB0A
:10175000F3F37B6002E0074B7B6000BFFFF73EFFC7
:1017600003469B0C02337A6802FB03F318460837E2
:10177000BD4680BD00093D0000127A0080B483B0F0
:1017800000AF786039607B683A689A6200BF0C37B6
:10179000BD4680BC704780B483B000AF78603960CC
:1017A0007B683A68DA6200BF0C37BD4680BC704780
:1017B00080B483B000AF786039607B683A681A63A0
:1017C00000BF0C37BD4680BC704780B483B000AF0B
:1017D000786039607B683A685A6300BF0C37BD4651
:1017E00080BC704780B483B000AF786039607B689C
:1017F0003A689A6300BF0C37BD4680BC704780B41E
:1018000083B000AF786039607B683A68DA6300BF04
:101810000C37BD4680BC704780B483B000AF7860A1
:1018200039607B683A681A6400BF0C37BD4680BCDB
:10183000704780B483B000AF78607B685B6943F029
:1018400001027B685A6100BF0C37BD4680BC7047FF
:1018500080B584B000AF786039607B681B68FB603E
:101860007B68274A93420BD07B68B3F1804F07D047
:101870007B68244A934203D07B68234A934206D173
:10188000FB6823F070023B685B681343FB607B6876
:101890001B4A93420BD07B68B3F1804F07D07B6823
:1018A000184A934203D07B68174A934206D1FB68DB
:1018B00023F440723B68DB681343FB607B68FA6883
:1018C0001A603B689B6819467868FFF764FF3B68BD
:1018D0001B8819467868FFF751FF7B68084A9342D6
:1018E00005D13B681B7C19467868FFF761FF786873
:1018F000FFF79FFF002318461037BD4680BD00BF8D
:10190000002C0140000400400008004080B586B073
:1019100000AFF860B9607A600123FB75BB68102BDB
:1019200012D0102B02D8012B07D022E0B3F5807F14
:1019300011D0B3F5805F15D01BE07968F86800F02E
:101940001DF80346FB7514E07968F86800F07CF830
:101950000346FB750DE07968F86800F0DFF8034690
:10196000FB7506E07968F86800F042F90346FB75FC
:1019700000BFFB7D18461837BD4680BD80B586B0D8
:1019800000AF786039607B681B6A23F001027B68D6
:101990001A627B681B6A7B617B685B683B617B6862
:1019A0009B69FB60FB6823F00303FB60FB6823F08B
:1019B00070023B681B681343FB607B6923F00202E3
:1019C0003B681B6913437B617B6923F001023B6821
:1019D0005B6813437B617B681A4A93421ED17B6923
:1019E00023F008023B685B699B0013437B617B69C2
:1019F00023F004023B689B689B0013437B613B69B7
:101A000023F480723B689B6913433B613B6923F479
:101A100000723B68DB695B0013433B617B683A699A
:101A20005A607B68FA689A613B68DB681946786897
:101A3000FFF7CBFE7B687A691A62002318461837D5
:101A4000BD4680BD002C014080B586B000AF7860F7
:101A500039607B681B6A23F010027B681A627B681E
:101A60001B6A7B617B685B683B617B689B69FB6091
:101A7000FB6823F44073FB60FB6823F4E0423B689F
:101A80001B681B021343FB607B6923F020023B6849
:101A90001B691B0113437B617B6923F010023B68C8
:101AA0005B681B0113437B617B681B4A93421FD118
:101AB0007B6923F080023B685B699B0113437B6178
:101AC0007B6923F040023B689B689B0113437B6169
:101AD0003B6923F480623B689B699B0013433B6135
:101AE0003B6923F400623B68DB69DB0013433B6125
:101AF0007B683A695A607B68FA689A613B68DB6880
:101B000019467868FFF76EFE7B687A691A620023CF
:101B100018461837BD4680BD002C014080B586B000
:101B200000AF786039607B681B6A23F480727B6841
:101B30001A627B681B6A7B617B685B683B617B68C0
:101B4000DB69FB60FB6823F00303FB60FB6823F0A9
:101B500070023B681B681343FB607B6923F40072CF
:101B60003B681B691B0213437B617B6923F4807212
:101B70003B685B681B0213437B617B681B4A934293
:101B80001FD17B6923F400623B685B699B021343AE
:101B90007B617B6923F480623B689B689B021343F3
:101BA0007B613B6923F480523B689B691B011343B3
:101BB0003B613B6923F400523B68DB695B011343E3
:101BC0003B617B683A695A607B68FA68DA613B6816
:101BD000DB6819467868FFF712FE7B687A691A623B
:101BE000002318461837BD4680BD00BF002C0140B9
:101BF00080B586B000AF786039607B681B6A23F4DB
:101C000080527B681A627B681B6A3B617B685B68F9
:101C10007B617B68DB69FB60FB6823F44073FB60DE
:101C2000FB6823F4E0423B681B681B021343FB6024
:101C30003B6923F400523B681B691B0313433B6160
:101C40003B6923F480523B685B681B0313433B6191
:101C50007B680F4A934207D17B6923F480423B683B
:101C60009B699B0113437B617B687A695A607B683F
:101C7000FA68DA613B68DB6819467868FFF7CCFDE3
:101C80007B683A691A62002318461837BD4680BD42
:101C9000002C014080B483B000AF78607B68DB68C3
:101CA00003F40053B3F5005F0CBF01230023DBB244
:101CB00018460C37BD4680BC704780B483B000AF77
:101CC000786039607B681B6923F440523B681A4393
:101CD0007B681A6100BF0C37BD4680BC704780B47A
:101CE00083B000AF786039607B685B6923F4407231
:101CF0003B681A437B685A6100BF0C37BD4680BC05
:101D00007047000080B485B000AFF860B9607A60B9
:101D1000BA6813469B0013449A001A447B689B00E0
:101D2000B2FBF3F3254AA2FB03235B099BB21B0121
:101D300099B2BA6813469B0013449A001A447B6810
:101D40009B00B2FBF3F21D4BA3FB02035B09642073
:101D500000FB03F3D31A1B013233184AA2FB0323FF
:101D60005B099BB203F0F0039BB20B4499B2BA68D3
:101D700013469B0013449A001A447B689B00B2FBF5
:101D8000F3F20E4BA3FB02035B09642000FB03F399
:101D9000D31A1B013233094AA2FB03235B099BB20E
:101DA00003F00F039BB20B449BB21A46FB689A6088
:101DB00000BF1437BD4680BC704700BF1F85EB5184
:101DC00080B588B000AF786039600123FB770023CD
:101DD000BB617868FFF75EFF0346002B45D17B6847
:101DE000DB6823F4B05323F00C033A6851683A6877
:101DF000D26811433A6812690A431A437B68DA6071
:101E00003B689B6819467868FFF757FF3B685B693A
:101E100019467868FFF763FF07F108031846FFF7D4
:101E2000F7FB7B68134A934202D17B69BB610CE0EC
:101E30007B68114A934202D13B69BB6105E07B6834
:101E40000E4A934201D13B69BB61BB69002B0CD0A8
:101E50003B681B68002B08D00023FB773B681B689E
:101E60001A46B9697868FFF74DFFFB7F184620379F
:101E7000BD4680BD0038014000440040004800409D
:101E800080B483B000AF786039607A683B68B2FB99
:101E9000F3F3074A013B5360054B00229A60044B61
:101EA00005221A6000BF0C37BD4680BC704700BFDA
:101EB00010E000E080B582B000AF78604FF47A7136
:101EC0007868FFF7DDFF00BF0837BD4680BD000022
:101ED00080B483B000AF7860034A7B68136000BFB2
:101EE0000C37BD4680BC70471400002080B485B01C
:101EF00000AF78600023FB737B681A78FB7B134488
:101F0000FB737B685A78FB7B1344FB73FB7B18469F
:101F10001437BD4680BC704780B485B000AF786090
:101F20000023FB730023BB600AE07A68BB6813449C
:101F300002331A78FB7B1344FB73BB680133BB602D
:101F40007B685B781A46BB689342EEDBFB7B1846E6
:101F50001437BD4680BC704780B483B000AF786052
:101F60007B680022C3F804217B6800225A707B68DA
:101F7000002283F8022100BF0C37BD4680BC7047A9
:101F800080B582B000AF03463960FB713B6893F8BF
:101F90000231052B6FD801A252F823F0B51F0008BB
:101FA000D11F0008E11F0008F11F000821200008D0
:101FB0004F2000083E22FB79934204D13B68012266
:101FC00083F8022157E03868FFF7C6FF002353E08B
:101FD0003B68FA791A703B68022283F802214AE0D2
:101FE0003B68FA795A703B68032283F8022142E089
:101FF0003868FFF77BFF03461A46FB7993420AD104
:102000003B685B78002B01D1052200E004223B688D
:1020100083F802212FE03868FFF79EFF00232BE0B2
:102020003B68D3F80431591C3A68C2F804113A6885
:102030001344FA799A703B68D3F804313A685278BD
:10204000934217D13B68052283F8022112E03B68D6
:10205000002283F802213868FFF75EFF03461A4624
:10206000FB79934201D1012306E03868FFF774FF42
:10207000002301E000BF022318460837BD4680BD9B
:1020800080B586B000AF786039607B681B786322CA
:10209000934201D000232EE000237B6127E07B697F
:1020A0005B007A6813449B789BB21B029AB27B69EF
:1020B0005B00013379680B449B789BB213439BB25E
:1020C0007B82B7F912301846FEF7B8FA0346FB6078
:1020D0000B4B1946F868FEF7B9FB0346FB603B68FB
:1020E0007A69F96843F822107B6901337B617B6967
:1020F000042BD4DD012318461837BD4680BD00BF30
:102100000000FA4680B483B000AF78607B681B782B
:10211000722293420CBF01230023DBB218460C3716
:10212000BD4680BC704780B5C6B000AF3B1D18608F
:102130003B461960762207F10C031A7007F10C0375
:1021400008225A700023C7F8143112E03B461A687F
:10215000D7F814311344197807F10C02D7F8143169
:10216000134402330A461A70D7F814310133C7F802
:102170001431D7F81431072BE8DD3B1D1A6807F13D
:102180000C03104619464FF484731A4601F0E6FB1F
:102190003B1D186807F58C77BD4680BD80B586B0BD
:1021A00000AFF860B9607A603B60FB685B7805332C
:1021B0001A463B681A60F868FFF798FE0346FB74FE
:1021C000F868FFF7A9FE0346BB743E22BB681A708D
:1021D000BB680133FA6812781A70BB680233FA6878
:1021E00052781A70BB680333FA7C1A7000237B6143
:1021F0000DE07B6904331A46BB681344F9687A69B9
:102200000A44023212781A707B6901337B61FB68E1
:102210005B781A467B699342EBDBFB685B7804339F
:102220001A46BB681344BA7C1A7000BF1837BD4603
:1022300080BD000080B400AF064B1B6803F4803300
:10224000B3F5803F0CBF01230023DBB21846BD4627
:1022500080BC704710E000E080B582B000AF7860CD
:1022600039600BE0FFF7E6FF0346002B06D03B6822
:102270005A1E3A60002B01D1012305E07B68984784
:102280000346002BEED0002318460837BD4680BD1C
:1022900080B485B000AF78607B6803F00703FB6013
:1022A0000C4BDB68BB60BA684FF6FF031340BB60A2
:1022B000FB681A02BB68134343F0BF6343F4003367
:1022C000BB60044ABB68D36000BF1437BD4680BC06
:1022D000704700BF00ED00E080B400AF044BDB6846
:1022E0001B0A03F007031846BD4680BC704700BFB9
:1022F00000ED00E080B483B000AF0346FB7197F9B6
:102300000730002B0BDBFB7903F01F02064997F91E
:1023100007305B09012000FA02F241F8232000BFD8
:102320000C37BD4680BC704700E100E080B483B04C
:1023300000AF03463960FB7197F90730002B0ADBC9
:102340003B68DAB20C4997F907301201D2B20B445C
:1023500083F800230AE03B68DAB20849FB7903F00E
:102360000F03043B1201D2B20B441A7600BF0C37A4
:10237000BD4680BC704700BF00E100E000ED00E01A
:1023800080B489B000AFF860B9607A60FB6803F090
:102390000703FB61FB69C3F10703042B28BF042378
:1023A000BB61FB690433062B02D9FB69033B00E0E8
:1023B00000237B614FF0FF32BB6902FA03F3DA437B
:1023C000BB681A407B699A404FF0FF317B6901FA84
:1023D00003F3D9437B680B40134318462437BD46AB
:1023E00080BC704790B486B000AFF860B9607A6086
:1023F000FB682C331946BB6803F440734FF44072FA
:102400007A617A6992FAA2F23A613A69B2FA82F290
:10241000D2B2D3409B000B441C462268BB6803F039
:102420001F031F2101FA03F3DB431A407B6803F00B
:102430001F01BB6803F01F0301FA03F3134323607A
:1024400000BF1837BD4690BC704790B48AB000AF4B
:10245000F860B9607A60FB680C331946BB6803F01A
:1024600000734FF000727A617A6992FAA2F23A61CF
:102470003A69B2FA82F2D2B2D3409B000B441C46B6
:102480002268BB6803F0F8734FF0F871F961F969DD
:1024900091FAA1F1B961B969B1FA81F1C9B2CB4040
:1024A000072101FA03F3DB431A40BB6803F0F8731A
:1024B0004FF0F8717962796A91FAA1F13962396A5B
:1024C000B1FA81F1C9B2CB40796801FA03F3134341
:1024D000236000BF2837BD4690BC704780B400AF72
:1024E000044B1B68034A43F48023136000BFBD46BE
:1024F00080BC70470010024080B400AF044B1B68E2
:10250000034A43F48033136000BFBD4680BC70476C
:102510000010024080B400AF064B1B6803F4003388
:10252000B3F5003F0CBF01230023DBB21846BD46C4
:1025300080BC70470010024080B483B000AF786068
:10254000064B5B6823F0030204497B6813434B602E
:1025500000BF0C37BD4680BC704700BF0010024072
:1025600080B400AF034B5B6803F00C031846BD4614
:1025700080BC70470010024080B483B000AF786028
:10258000064B5B6823F0F00204497B6813434B6001
:1025900000BF0C37BD4680BC704700BF0010024032
:1025A00080B483B000AF7860064B5B6823F4E062D0
:1025B00004497B6813434B6000BF0C37BD4680BCA9
:1025C000704700BF0010024080B483B000AF786055
:1025D000064B5B6823F4605204497B6813434B60ED
:1025E00000BF0C37BD4680BC704700BF00100240E2
:1025F00080B483B000AF7860064B5B6823F4404240
:1026000004497B6813434B6000BF0C37BD4680BC58
:10261000704700BF0010024080B400AF044B1B683D
:10262000034A43F08073136000BFBD4680BC70470F
:102630000010024080B400AF064B1B6803F000732B
:10264000B3F1007F0CBF01230023DBB21846BD4667
:1026500080BC70470010024080B483B000AF786047
:102660003960084B5B6823F47C127B6803F44031CB
:102670003B680B43034913434B6000BF0C37BD4617
:1026800080BC70470010024080B485B000AF786015
:10269000084BDA6907497B681343CB61054BDA695C
:1026A0007B681340FB60FB6800BF1437BD4680BCED
:1026B000704700BF0010024080B485B000AF786062
:1026C000084B9A6907497B6813438B61054B9A69EC
:1026D0007B681340FB60FB6800BF1437BD4680BCBD
:1026E000704700BF0010024080B483B000AF786034
:1026F000064B1B6823F0070204497B6813430B60F9
:1027000000BF0C37BD4680BC704700BF00200240B0
:1027100080B400AF034B1B6803F007031846BD46A7
:1027200080BC70470020024080B483B000AF786066
:102730007B68042B06D1094B1B68084A43F004034D
:10274000136005E0054B1B68044A23F00403136083
:1027500000BF0C37BD4680BC704700BF10E000E0F2
:1027600080B483B000AF78607B681B6843F00102DF
:102770007B681A6000BF0C37BD4680BC704780B4D0
:1027800083B000AF78607B681B6823F080027B68B1
:102790001A6000BF0C37BD4680BC704780B483B060
:1027A00000AF786039607B681A6A3B681A437B68BF
:1027B0001A6200BF0C37BD4680BC7047B0B483B00E
:1027C00000AF786039603B68012B1CD03B68042B5C
:1027D00017D03B68102B12D03B68402B0DD03B68C4
:1027E000B3F5807F07D03B68B3F5806F01D1052337
:1027F0000AE0062308E0042306E0032304E00223A2
:1028000002E0012300E000231D467B6818331A46CE
:102810002946094B5B5C13441C4622682946074B3A
:102820005B5C194604238B40DB431340236000BFED
:102830000C37BD46B0BC7047005A0008085A000863
:10284000B0B483B000AF786039603B68012B1CD016
:102850003B68042B17D03B68102B12D03B68402BF1
:102860000DD03B68B3F5807F07D03B68B3F5806F30
:1028700001D105230AE0062308E0042306E0032330
:1028800004E0022302E0012300E000231D467B68F0
:1028900018331A462946094B5B5C13441C462268D0
:1028A0002946074B5B5C194608238B401343236082
:1028B00000BF0C37BD46B0BC704700BF005A0008CF
:1028C000085A000880B483B000AF786039607B6834
:1028D0003A685A6300BF0C37BD4680BC704780B46D
:1028E00083B000AF786039607B683A689A6300BF54
:1028F0000C37BD4680BC704780B483B000AF7860B1
:1029000039607B683A68DA6300BF0C37BD4680BC2B
:10291000704780B483B000AF786039607B685B68D3
:1029200023F070023B681A437B685A6000BF0C3783
:10293000BD4680BC704780B483B000AF78607B68D0
:102940009B6823F080027B689A6000BF0C37BD460D
:1029500080BC704780B483B000AF78607B685B6CEC
:1029600043F400427B685A6400BF0C37BD4680BC0C
:10297000704780B483B000AF78607B68DB6843F455
:1029800000527B68DA6000BF0C37BD4680BC7047E0
:1029900080B483B000AF78607B681B6923F49042F9
:1029A0007B681A617B685B6923F02A027B685A6145
:1029B00000BF0C37BD4680BC704790B488B000AFF4
:1029C000F860B9607A60FB681A46BB681B0E134456
:1029D0001C462268BB687B617B6993FAA3F33B6169
:1029E0003B69B3FA83F3DBB29B000F2101FA03F3D7
:1029F000DB431A40BB68FB61FB6993FAA3F3BB613D
:102A0000BB69B3FA83F3DBB29B00796801FA03F385
:102A10001343236000BF2037BD4690BC704780B48D
:102A200083B000AF786039603B681B0A9AB27B685C
:102A30005A6100BF0C37BD4680BC704780B483B07C
:102A400000AF786039607B68DA683B681B0A9BB22C
:102A50005A407B68DA6000BF0C37BD4680BC7047C7
:102A600080B400AF074B5B68064A23F0E063536015
:102A7000044B5B68034A43F00073536000BFBD46DC
:102A800080BC70470000014080B485B000AF786022
:102A90003960134A3B68DBB2023352F823203B68AB
:102AA0001B0CDB4302EA03013B681B0CFB60FB6869
:102AB00093FAA3F3BB60BB68B3FA83F3DBB21A46A5
:102AC0007B6803FA02F206483B68DBB20A43023332
:102AD00040F8232000BF1437BD4680BC704700BFBC
:102AE0000000014080B400AF124B4FF080421A60EA
:102AF000104B4FF080425A600E4B0F4A9A600D4BBC
:102B00000D4ADA600B4B0C4A1A610C4B01221A6019
:102B10000A4B10225A60094B01229A60074B10227F
:102B2000DA60064B4FF480721A6100BFBD4680BC6C
:102B3000704700BF7C02002000040040900200208B
:102B400080B582B000AF00237B600EE00A4A7B684C
:102B500052F8233009497A6851F8222040F2DC51BA
:102B6000104698477B6801337B607B68042BEDDD62
:102B700000BF0837BD4680BD000000207C02002059
:102B800080B500AF4FF08040FFF7EAFD1148FFF736
:102B9000E7FD4FF08040FFF7DDFE0E48FFF7DAFE5D
:102BA00001214FF08040FFF7F9FD10214FF08040E8
:102BB000FFF7F4FD01210748FFF7F0FD102105485C
:102BC000FFF7ECFD4FF480710248FFF7E7FD00BF0F
:102BD00080BD00BF0004004080B582B000AF7860C7
:102BE0004FF4C8731846FDF725FD0346796818466B
:102BF000FDF778FD03461846FDF7C4FE03461BB2F9
:102C00009AB240F2DC539BB213449BB21846083789
:102C1000BD4680BD84B080B582B000AF07F1100C16
:102C20008CE80F0000237B6017E07B6807F110023F
:102C300052F823301846FFF7CFFF03467B800C4A3B
:102C40007B6852F823300B497A6851F82220798842
:102C5000104698477B6801337B607B68042BE4DD7A
:102C600000BF0837BD46BDE8804004B0704700BFD4
:102C7000000000207C02002090B5ADF5117D02AF70
:102C80004FF00003C7F830320120FFF715FD4FF079
:102C90008050FFF7F9FC0320FFF7FAFAFFF7E0FE98
:102CA00000F098F800F024FB00F0CCFA00F062FA93
:102CB00000F0BCF900F038F900F0D4F8FFF712FF8B
:102CC000FFF73EFFFFF75CFF00F052FC3C4B1B7828
:102CD000012BFBD140F201113A48FFF7AFFE42F25F
:102CE00020013948FFF7AAFE07F507731946374850
:102CF000FFF7C6F90346012B07D1D7F82C32009312
:102D000007F507730FCBFFF785FF3048FFF7FAF998
:102D10000346012B4CD1D7F83002FDF77DFB03466B
:102D20000C4607F584701A462346294901F078FAC3
:102D30000023C7F8343211E007F58472D7F8343233
:102D40001344197807F50572D7F8343213440A464C
:102D50001A70D7F834320133C7F83432D7F8343226
:102D6000052BE9DD562387F81A32002387F81B323A
:102D7000164C3B4607F5057211461846FFF7D3F986
:102D80003B46204619464FF484731A4600F0E6FD90
:102D900007F5047307F5A471C8220C48FFF7FEF984
:102DA000D7F8102207F5A4731146184600F0FCFB73
:102DB000034B00221A700548FFF7CEF886E700BFE4
:102DC0000402002000100140000801400803002018
:102DD000385A000880B500AF0220FFF785FCFFF7E6
:102DE00097FC0346022B01D000F00CFBFFF776FBAB
:102DF000FFF782FB00BFFFF78DFB0346012BFAD1E3
:102E00004FF4E0114FF48030FFF726FCFFF704FC8D
:102E100000BFFFF70FFC0346012BFAD10020FFF79C
:102E2000ABFB4FF48060FFF7BBFB0020FFF7CCFB50
:102E30000220FFF781FB00BFFFF792FB0346082B40
:102E4000FAD10748FFF736F80420FFF76DFC044875
:102E5000FFF73EF84FF40040FFF7CAFB00BF80BD0C
:102E600000A24A0480B58EB000AF07F13003002203
:102E70001A605A600023FB6207F1180300221A60EF
:102E80005A609A60DA601A613B1D00221A605A602B
:102E90009A60DA601A614FF40070FFF70DFC0420AD
:102EA000FFF70AFC41F210037B600023BB603B1D6F
:102EB00019461A48FEF7F4FA00233B6300237B63AC
:102EC00007F1300319461648FEF7B8F80023FB62F5
:102ED00007F12C0319461248FEF77EF84FF46023E1
:102EE000BB610023FB6100233B6200237B62002364
:102EF000BB6207F1180319460948FEF7C6F8094AEC
:102F00004FF400710648FFF76DFA002205490448A6
:102F1000FFF79BFA00BF3837BD4680BD000801406F
:102F2000002401400400C00280B592B000AF07F158
:102F3000340300221A605A609A60DA601A6107F15D
:102F4000140320220021184600F013FD3B46002206
:102F50001A605A609A60DA601A610120FFF794FBE8
:102F60004723BB860023BB6340F6C313FB630023E8
:102F70003B6407F1340319464FF08040FEF768FCCC
:102F80004FF08040FFF7FBFB01214FF08040FFF73F
:102F900057FC60237B610023BB610023FB6100239E
:102FA0003B6200237B6207F114031A4601214FF0B4
:102FB0008040FEF7ABFC01214FF08040FFF7FEFBA5
:102FC00010214FF08040FFF73BFC0023BB61002342
:102FD000FB6107F114031A4610214FF08040FEF701
:102FE00095FC10214FF08040FFF7E8FB00214FF0E7
:102FF0008040FFF78EFC4FF08040FFF79CFC0420E0
:10300000FFF75AFB40F203333B6009237B60022346
:10301000BB600023FB603B4619460348FEF740FABD
:1030200000BF4837BD4680BD0008014080B592B062
:1030300000AF07F1340300221A605A609A60DA6028
:103040001A6107F1140320220021184600F091FCB8
:103050003B4600221A605A609A60DA601A610220C8
:10306000FFF712FB4723BB860023BB6340F6C31365
:10307000FB6300233B6407F1340319463A48FEF72B
:10308000E7FB3948FFF77BFB01213748FFF7D8FB07
:1030900060237B610023BB610023FB6100233B6253
:1030A00000237B6207F114031A4601212E48FEF724
:1030B0002DFC01212C48FFF781FB10212A48FFF746
:1030C000BFFB0023BB610023FB6107F114031A4619
:1030D00010212548FEF71AFC10212348FFF76EFB4C
:1030E0004FF480712048FFF7ABFB0023BB61002346
:1030F000FB6107F114031A464FF480711A48FEF77A
:1031000005FC4FF480711848FFF758FB0021164862
:10311000FFF7FFFB1448FFF70EFC0420FFF7CCFA83
:103120000820FFF7C9FA4CF2C0033B6009237B601B
:103130000223BB600023FB603B4619460B48FEF7A9
:10314000AFF940F201133B6009237B600223BB60AF
:103150000023FB603B4619460548FEF7A1F900BF76
:103160004837BD4680BD00BF000400400008014054
:10317000000C014080B58CB000AF07F114030022B1
:103180001A605A609A60DA601A615A619A613B4625
:1031900000221A605A609A60DA601A614FF4804027
:1031A000FFF78AFA0420FFF787FA224B3B600923D6
:1031B0007B600323BB600023FB603B4619461E482F
:1031C000FEF76EF91D4B3B6004237B603B461946BE
:1031D0001948FEF765F9FFF77FF803460022002142
:1031E0001846FFF7CDF8034619462520FFF79EF84D
:1031F0002520FFF77FF84FF4E1337B610023BB61AB
:103200000023FB6100233B620C237B620023BB6233
:103210000023FB6207F1140319460948FEF7D0FDAD
:103220000748FFF7B5FB0648FFF7A3FB00BF3037A1
:10323000BD4680BD020002040008014004000404F1
:103240000038014080B58CB000AF07F114030022B4
:103250001A605A609A60DA601A615A619A613B4654
:1032600000221A605A609A60DA601A614FF40030E6
:10327000FFF70AFA0420FFF71FFA40F204433B600D
:1032800009237B600223BB600023FB603B46194699
:103290001548FEF705F940F608033B6009237B60FB
:1032A0003B4619461048FEF7FBF84FF4E1337B61CB
:1032B0000023BB610023FB6100233B620C237B6284
:1032C0000023BB620023FB6207F114031946074881
:1032D000FEF776FD0548FFF75BFB0448FFF749FB67
:1032E00000BF3037BD4680BD0008014000440040AB
:1032F00080B588B000AF07F1180300221A605A6049
:103300003B1D00221A605A609A60DA601A61102030
:10331000FFF7D2F92020FFF7CFF90420FFF7CCF90F
:103320000820FFF7C9F940F201113148FFF777FB98
:1033300042F220012F48FFF772FB44F240012E4871
:10334000FFF76DFB2D490220FFF79EFB4FF4005362
:10335000BB6101233B7700237B770123BB7707F118
:1033600018031846FDF768FF042225492048FFF797
:1033700024FB40F201137B600123BB600223FB604E
:1033800000233B613B1D19461948FEF789F842F2BC
:1033900020037B600123BB600223FB6000233B61B1
:1033A0003B1D19461348FEF77BF844F240037B604F
:1033B0000123BB600223FB6000233B613B1D1946D8
:1033C0000D48FEF76DF8FEF787FF03460022002147
:1033D0001846FEF7D5FF034619462820FEF7A6FF3C
:1033E0002820FEF787FF00BF2037BD4680BD00BF05
:1033F0000010014000080140000C01400300F000F3
:103400002000200480B400AF00BFBD4680BC7047E0
:1034100080B483B000AF78607B68DB6843F400520F
:103420007B68DA6000BF0C37BD4680BC704780B453
:1034300083B000AF78607B68DB6843F004027B6890
:10344000DA6000BF0C37BD4680BC704780B483B0E3
:1034500000AF78607B68DB6843F008027B68DA6065
:1034600000BF0C37BD4680BC704780B483B000AF4E
:1034700078607B68DB6823F008027B68DA6000BF55
:103480000C37BD4680BC704780B483B000AF786015
:103490007B681B6803F04003402B0CBF0123002313
:1034A000DBB218460C37BD4680BC704780B483B091
:1034B00000AF78607B681B6803F08003802B0CBF33
:1034C00001230023DBB218460C37BD4680BC704791
:1034D00080B483B000AF78607B68DB6843F0200283
:1034E0007B68DA6000BF0C37BD4680BC704780B493
:1034F00083B000AF78600B46FB70FA787B685A6047
:1035000000BF0C37BD4680BC704780B483B000AFAD
:10351000786039603B681B0A9AB27B681A6100BF09
:103520000C37BD4680BC704780B483B000AF786074
:1035300039603B681B0A9AB27B685A6100BF0C373E
:10354000BD4680BC7047000080B500AF0248FFF761
:10355000ADFF0346184680BD0038014080B500AF7E
:103560000248FFF791FF0346184680BD003801402E
:1035700080B500AF44F240010848FFF7D5FF084886
:10358000FFF746FF0648FFF752FF0548FFF7A0FF89
:103590000448FEF7E1FC00BF80BD00BF000C014005
:1035A000003801400803002080B582B000AF786089
:1035B000396044F240011848FFF7A7FF1748FFF7AA
:1035C00045FF0EE00A211648FEF746FE0346002B93
:1035D0001CD17B685A1C7A601B7819460F48FFF78C
:1035E00086FF3B685A1E3A60002BEBD10A210D483A
:1035F000FEF732FE0346002B0AD10848FFF735FFDD
:1036000044F240010448FFF78FFF02E000BF00E0F2
:1036100000BF0837BD4680BD000C014000380140A6
:10362000493500085D35000880B582B000AF03461B
:10363000FB710A4B1B78002B0BD1FB79084918460C
:10364000FEF79EFC0346012B04D1044B01221A70A5
:1036500000E000BF0837BD4680BD00BF0402002067
:103660000803002080B483B000AF7860074B5A692C
:103670007B6813407A689A420CBF01230023DBB2B7
:1036800018460C37BD4680BC704700BF000401409F
:1036900080B483B000AF7860034A7B68536100BF99
:1036A0000C37BD4680BC70470004014080B483B035
:1036B00000AF78607B681B6803F00803082B0CBF21
:1036C00001230023DBB218460C37BD4680BC70478F
:1036D00080B483B000AF78607B681B6803F0200380
:1036E000202B0CBF01230023DBB218460C37BD464C
:1036F00080BC704780B485B000AF78607B681B6881
:10370000FB60FB687B685B68FB60FB6800BF14378D
:10371000BD4680BC704780B483B000AF78607B68E2
:103720006FF020021A6000BF0C37BD4680BC7047A6
:1037300080B483B000AF78607B685B68DBB218460A
:103740000C37BD4680BC704780B400AF00BFBD469B
:1037500080BC704780B400AFFEE780B400AFFEE7E6
:1037600080B400AFFEE780B400AFFEE780B400AFE6
:1037700000BFBD4680BC704780B400AF00BFBD46EF
:1037800080BC704780B400AF00BFBD4680BC7047AE
:1037900080B400AF00BFBD4680BC704780B500AFAD
:1037A0000D48FFF795FF0346002B09D00A48FFF7A5
:1037B000B2FF0948FFF7BCFF03461846FFF734FF86
:1037C0000548FFF773FF0346002B02D00248FFF7BE
:1037D00091FF00BF80BD00BF0038014080B500AF41
:1037E0004FF40050FFF73EFF0346002B03D04FF489
:1037F0000050FFF74DFF00BF80BD000080B584B0D2
:1038000000AF7860114B1B68002B02D10F4B104AA0
:103810001A600E4B1B68FB600C4B1A687B681344E4
:103820006A46934207D900F06FF802460C231360F2
:103830004FF0FF3306E0054B1A687B681344034AD8
:103840001360FB6818461037BD4680BD0C0200208F
:103850001804002080B400AF154B1B68144A43F0D5
:1038600001031360124B5A681149124B13404B600D
:103870000F4B1B680E4A23F0847323F480331360CC
:103880000B4B1B680A4A23F480231360084B5B68C8
:10389000074A23F4FE035360054B4FF41F029A605E
:1038A000054B4FF000629A6000BFBD4680BC704778
:1038B000001002400000FFF800ED00E0002103E0EE
:1038C0000B4B5B58435004310A480B4B42189A4249
:1038D000F6D30A4A02E0002342F8043B084B9A421E
:1038E000F9D3FFF7B7FF00F015F8FFF7C5F97047F8
:1038F000B85C000800000020E8010020E80100207A
:1039000014040020FEE70000014B1868704700BF58
:103910001800002070B500250C4E0D4CA41BA410FF
:10392000A54209D102F05CF800250A4E0A4CA41BFE
:10393000A410A54205D170BD56F825309847013531
:10394000EEE756F8253098470135F2E7B05C0008FD
:10395000B05C0008B05C0008B45C000810B5431E01
:103960000A44914200D110BD11F8014B03F8014FF8
:10397000F7E703460244934200D1704703F8011B66
:10398000F9E7002B2DE9F0471E46BBBF03F10043CA
:103990001E4600232D2388B0149FDDE9121A27F05C
:1039A0002007462F1446109D0B7004D0452F00D1E0
:1039B0000135022300E0032307AA049206AACDE9F9
:1039C00002A2CDE900352246334600F0D9FC472F4C
:1039D000804602D1119BDB0726D5462F08EB05094F
:1039E00011D198F80030302B0AD100220023204654
:1039F0003146FDF75DFA18B9C5F10105CAF8005066
:103A0000DAF8003099440022002320463146FDF7C1
:103A10004FFA38B93022079B4B4505D2591C079104
:103A20001A70F8E7CDF81C904046079B159AA3EB57
:103A30000803136008B0BDE8F087F7B50029B4BFEC
:103A40002D232B230446B8BF4942092904F8022B31
:103A5000437021DD0DF107031F460A2691FBF6F5A1
:103A600006FB1511092D01F1300103F8011C03F1CA
:103A7000FF32294609DC3031023B02F8011CBB420F
:103A8000224604D3101A03B0F0BD1346E6E713F83C
:103A9000012B04F8012BF2E7302319448370021D37
:103AA000C170EFE72DE9F04F91B00C461A9F934695
:103AB0001E46054601F018FA036818460993FCF7FC
:103AC00087FF00230E933B680A90073323F0070318
:103AD00003F1080294F81880D4F800A03A60D3E902
:103AE0000023C4E91223D4E9127929F000430B938F
:103AF0004FF0FF32A64B38460B99FDF70BFA68BB27
:103B00004FF0FF32A24B38460B99FDF7E5F928BB81
:103B10000022002338464946FDF7D4F910B12D2381
:103B200084F843309B4F9C4BB8F1470F98BF1F461A
:103B300003234FF0000923612AF004032360009659
:103B40005B460FAA2146284600F0E2F9013040F01A
:103B500090804FF0FF3011B0BDE8F08F3A464B46F1
:103B600038464946FDF7D6F910B18C4F8C4BDBE750
:103B700063684AF48062591C0DA80EA940D106233F
:103B800063604FF0000C0DF13303CDE9012363684E
:103B90002260CDE9030800933A464B46CDE9051C67
:103BA0002846FFF7EEFE08F0DF03472B074609D152
:103BB0000D9BD81C02DB6268934247DDA8F1020826
:103BC0005FFA88F8B8F1650F0D9924D8013942469B
:103BD00004F150000D91FFF730FF0E9A8146131843
:103BE000012A236102DC2268D10701D50133236158
:103BF0009DF83330002BA2D02D2384F843309EE76C
:103C0000B8F1670F00F06E81B8F1470FB9D1002B02
:103C1000B7D10123B4E7B8F1660F19D10029636861
:103C20000CDD216113B92268D20702D501330B44A0
:103C300023610D9B4FF00009A365D9E713B92268F2
:103C4000D00701D50233F3E70123F1E74FF067080E
:103C5000DDE90D32934205DB22682361D107E8D507
:103C60000133E5E7002BCCBF0123C3F1020313446A
:103C7000DEE723685A0507D423693A4659462846A1
:103C8000B047013029D164E7B8F1650F40F2D78021
:103C9000D4E9120100220023FDF70AF988B30123B9
:103CA000404A59462846B04701303FF452AFDDE95B
:103CB0000D239A4202DB2368D8070ED5DDE90923DC
:103CC00059462846B04701303FF443AF002704F17E
:103CD0001A080E9B013BBB4209DC23689F0700F1D9
:103CE000FD80E0680F9B9842B8BF184633E7012378
:103CF000424659462846B04701303FF42AAF0137C3
:103D0000E7E70D9B002B2BDC0123264A594628466A
:103D1000B04701303FF41DAF0D9B23B90E9B13B983
:103D20002368D907D9D5DDE9092359462846B04784
:103D300001303FF40EAF4FF0000804F11A090D9B5B
:103D40005B42434501DC0E9B97E701234A465946F7
:103D50002846B04701303FF4FCAE08F10108EEE719
:103D60000E9AA36D9A42A8BF1A46002A904607DD14
:103D7000134659463A462846B04701303FF4E9AE6B
:103D800004F11A034FF0000A28EAE8780B9315E0D3
:103D9000FFFFEF7F585A0008545A0008605A000885
:103DA0005C5A0008645A000801230B9A59462846B9
:103DB000B04701303FF4CDAE0AF1010AD4F8589073
:103DC000A9EB08035345EFDCDDE90D239A424F448C
:103DD00014DB2368DA0711D40E9B0D99A3EB0902BB
:103DE000A3EB01099145A8BF9146B9F1000F0DDC85
:103DF000002729EAE97904F11A0818E0DDE9092326
:103E000059462846B0470130E6D1A2E64B463A462D
:103E100059462846B0470130EAD19AE60123424686
:103E200059462846B04701303FF493AE0137DDE9EB
:103E30000D239B1AA3EB0903BB42EFDC4DE70E9A5F
:103E4000012A01DCDB0738D501233A4659462846CA
:103E5000B04701303FF47DAEDDE9092359462846DD
:103E6000B047013007F101073FF473AED4E9120106
:103E70000E9B002203F1FF380023FDF719F8C0B9AB
:103E800043463A4659462846B04701300DD160E6D0
:103E90000123424659462846B04701303FF459AE07
:103EA00001370E9B013BBB42F2DC4B4604F1500252
:103EB000E4E6002704F11A08F3E70123E1E7012310
:103EC000424659462846B04701303FF442AE0137DA
:103ED000E3680F9A9B1ABB42F1DC02E7002704F16A
:103EE0001908F5E7002B3FF494AE4FF0000CCDE934
:103EF000051C0DF133012260CDE90308CDE9012154
:103F000000933A464B462846FFF73BFD07464FE6EF
:103F10002DE9F04791461F468A680B690646934291
:103F2000B8BF1346C9F8003091F843200C46DDF8BD
:103F3000208012B10133C9F800302368990642BFCE
:103F4000D9F800300233C9F80030256815F00605AD
:103F500007D104F1190AE368D9F800209B1AAB4293
:103F600029DC94F843302268003318BF01239206FD
:103F70002ED404F1430239463046C047013021D0E7
:103F80002368E56803F00603042B18BF0025D9F861
:103F900000204FF0000908BFAD1AA368226908BFCE
:103FA00025EAE5759342C4BF9B1AED181A344D45B6
:103FB0001AD1002008E00123524639463046C04756
:103FC000013003D14FF0FF30BDE8F0870135C2E783
:103FD0003020E11881F843005A1C94F8451022441F
:103FE000023382F84310C4E70123224639463046A3
:103FF000C0470130E6D009F10109D8E72DE9F043C7
:1040000001F1430C0C46097E85B06E291746064621
:1040100098460C9A00F0B38022D8632936D00AD88B
:10402000002900F0B980582900F0838004F142058E
:1040300084F8421032E0642901D06929F6D1206861
:104040001368050603F104012AD51B681160002BD3
:1040500003DA2D225B4284F843206F480A2239E0BC
:10406000732900F09D8008D86F2920D07029DDD1F8
:10407000236843F02003236003E0752917D07829D3
:10408000D4D17823654884F8453055E0136804F1AD
:104090004205191D1B68116084F8423001238CE031
:1040A0001B6810F0400F116018BF1BB2CFE71368F8
:1040B0002568181D1060280601D51B6802E06806F7
:1040C000FBD51B886F2914BF0A2208225248002101
:1040D00084F843106568002DA560C0F295802168C2
:1040E00021F004012160002B3DD1002D40F08E8095
:1040F0006546082A0BD12368DB0708D52369626867
:104100009A42DEBF302305F8013C05F1FF35ACEBE8
:1041100005032361CDF800803B4603AA21463046C3
:10412000FFF7F6FE01304DD14FF0FF3005B0BDE88E
:10413000F083394884F84510136821681D1D1B68F9
:1041400015600A060BD5CA0744BF41F02001216063
:104150001BB9226822F0200222601022B7E74D0628
:1041600048BF9BB2EFE76546B3FBF2F102FB1133A8
:10417000C35C05F8013D0B460029F5D1B9E713688A
:104180002568181D6169106028061B6801D5196033
:1041900002E06A06FBD51980002365462361B9E772
:1041A0001368191D11601D6862680021284600F01F
:1041B000B1FE08B1401B606063682361002384F88E
:1041C0004330A7E723692A4639463046C0470130C5
:1041D000AAD023689B0713D4E068039B9842B8BF1A
:1041E0001846A3E701234A4639463046C047013006
:1041F0009AD00135E368039A9B1AAB42F2DCEBE7F5
:10420000002504F11909F5E7002BACD1037804F17E
:10421000420584F842306CE7665A0008775A000875
:104220000EB46FF0004100B59CB01DAB029006903B
:10423000079104910848094953F8042B0591006837
:1042400002A9019301F05EFA0022029B1A701CB0D1
:104250005DF804EB03B07047180000200802FFFF70
:104260002DE9F74F03690C698046A342C0F28480B0
:10427000013C01F1140700F1140657F8245056F8D8
:1042800024000135B0FBF5F54FEA840C06EB0C0376
:1042900007EB0C0901939DB34FF0000A3846B64670
:1042A000D34650F8042B93B205FB03A3120C4FEA3C
:1042B000134A05FB02A29BB2ABEB0303DEF800B08E
:1042C0004FEA124A1FFA8BFB5B441FFA82FBDEF8AF
:1042D00000208145CBEB124202EB23429BB243EA22
:1042E00002434FEA224B4EF8043BDAD256F80C3028
:1042F00033B9019B043B9E421A4631D3C8F81040A3
:10430000404601F029F8002826DB30464FF0000C2B
:10431000013557F8041BD0F800E08BB2ACEB030377
:104320001FFA8EF213440A0CC2EB1E4202EB234228
:104330009BB243EA0243B9454FEA224C40F8043BA2
:10434000E7D256F8242006EB84032AB9043B9E42A8
:104350001A460BD3C8F81040284603B0BDE8F08FCA
:104360001268043B002AC9D1013CC4E71268043B2F
:10437000002AEFD1013CEAE70020EEE70000000050
:104380002DE9F04F16461F46456A95B00446DDF804
:104390008480CDE902673DB9102000F0B3FD606272
:1043A000C0E901550560C560636A196851B15A6872
:1043B000012393404A608B60204600F0EDFD00220F
:1043C000636A1A603B1EAFBF0023012223F0004343
:1043D0000393ACBFC8F80030C8F80020AE4BDDF83E
:1043E0000C8033EA08031BD142F20F73209A13604A
:1043F000029B23B9C8F31300002800F04585229BD7
:1044000053B9A64B21E0A64B06930833229A1360BA
:10441000069815B0BDE8F08FA04B06930333F5E77F
:10442000DDE902670022002330463946FCF740FDF3
:10443000824660B10123209A1360229B002B00F07A
:104440002085984B229A1360013B0693E0E712AB5C
:10445000019313AB009332463B46204600F0F4FF35
:10446000C8F30A558346002D7DD0B046C7F3130329
:1044700043F07F5949F44019A5F2FF35CDF840A02B
:104480000022894B40464946FBF766FE7CA3D3E9F0
:104490000023FCF7A5FA7CA3D3E90023FBF75EFE1B
:1044A000064628460F46FBF7A5FF79A3D3E900236C
:1044B000FCF796FA02460B4630463946FBF74EFEAD
:1044C00006460F46FCF73CFD00228246002330469C
:1044D0003946FCF7F7FC48B15046FBF78BFF3246F4
:1044E0003B46FCF7E5FC08B90AF1FF3ABAF1160FB2
:1044F0005AD8DDE902236D4901EBCA01D1E9000177
:10450000FCF7FEFC002851D000230AF1FF3A0D937E
:10451000129B5D1B6B1E079343BF0023C5F101096E
:1045200007934FF00009BAF1000F41DB079BCDF86C
:1045300030A053440793002308931E9B092B00F2DD
:104540008F80052BC4BF043B1E931E9BC8BF002554
:10455000A3F10203D8BF0125032B00F28D80DFE811
:1045600003F07B7D2F6FDDE912531D4405F23240CD
:10457000202813DDC0F14000029B08FA00F805F284
:10458000124023FA00F048EA0000FBF723FF012362
:104590008046A1F1F879013D109371E7029BC0F1CB
:1045A000200003FA00F0F0E70123B0E70D90AFE739
:1045B000CAF1000308930023A9EB0A090C93BCE796
:1045C000012309931F9B002B74DD9846049300225E
:1045D000666A7260042202F11400984271686ED912
:1045E000204600F0A5FC636A30601B68B8F10E0F2E
:1045F000069300F2ED80002D00F0EA80DDE9022351
:10460000BAF1000FCDE90E2377DD284A0AF00F0337
:104610004FEA2A1602EBC303F006D3E90023CDE9E3
:104620000A2368D5DDE90E01214B0325D3E90823D0
:10463000FCF700FBCDE9020106F00F061C4F4FE02E
:10464000012309931F9B534403F10108049343463C
:10465000012BB8BF0123BAE70023B2E70023F0E73C
:104660000125002309951E934FF0FF330022049388
:10467000984612231F92AAE701230993F4E700BF8B
:1046800061436F63A787D23FB3C8608B288AC63F58
:10469000FB799F501344D33F0000F07F915A0008EC
:1046A000885A0008655A00080000F83FC05A000800
:1046B000985A00080123049398461A46DAE7013114
:1046C0007160520087E7F10708D5DDE90A01D7E9F3
:1046D0000023FCF785F9CDE90A010135761008378A
:1046E000002EF0D1DDE90A23DDE90201FCF7A2FA90
:1046F000CDE902011BE00225A0E700F0A480DDE97E
:104700000E01CAF10006A04B06F00F0203EBC20334
:10471000D3E90023FCF764F902250023CDE9020167
:104720009A4F3611002E40F08380002BE0D10D9B74
:10473000002B00F08A80DDE90223CDE90A23DDE9C0
:104740000A010022924BFCF7BDFB00287DD0B8F196
:10475000000F7AD0049B002B36DDDDE90A01002230
:104760008C4BFCF73DF9CDE90201049E0AF1FF37BD
:1047700001352846FBF73EFEDDE90223FCF730F960
:104780000022854BFBF7EAFCA1F15075CDE90A0147
:104790000B95002E5CD1DDE9020100227F4BFBF777
:1047A000DBFC0A9A2B46CDE90201FCF7A9FB0028A5
:1047B00040F08182DDE902010A9A05F10043FCF72D
:1047C00081FB002840F07582DDE90E23CDE902234C
:1047D000139B002BC0F24B81BAF10E0F00F34781FF
:1047E000694B03EBCA03D3E90023CDE904231F9BE4
:1047F000002B80F2D780B8F1000F00F3D38040F097
:104800005782DDE904010022644BFCF7E9F8DDE999
:104810000223FCF76BFB46464746002840F02D82FA
:10482000069B069A5D1C31230AF1010A137028E2E7
:10483000F20705D5D7E90023FCF7D2F801230135AB
:10484000761008376EE7022571E75746464690E72F
:104850004D4B03EBC60353E90201099B002B48D0E3
:1048600002460B4600204E49FCF7E4F9DDE90A2335
:10487000FBF772FCCDE90A01069DDDE90201FCF7B8
:104880005FFB1190FBF7B6FD02460B46DDE9020126
:10489000FBF762FC119BCDE90201303305F8013BC7
:1048A000DDE90A23FCF70EFB002863D1DDE90223D2
:1048B00000203749FBF750FCDDE90A23FCF702FB37
:1048C000002840F0B580069BEB1A9E427FF77CAF34
:1048D000DDE90A0100222F4BFCF782F80022CDE926
:1048E0000A01DDE902012B4BFCF77AF8CDE9020160
:1048F000C3E7DDE90A23FCF773F8069BCDE90A015B
:104900009D191E46DDE90201FCF71AFB1190FBF729
:1049100071FD02460B46DDE90201FBF71DFC119B10
:10492000CDE90201303306F8013BAE424FF0000200
:1049300024D1DDE90A011A4BFBF710FC02460B46B5
:10494000DDE90201FCF7DCFA002871D1DDE90A2378
:1049500000201349FBF700FC02460B46DDE902018B
:10496000FCF7B0FA00283FF42FAF15F8013C6A1E9F
:10497000302B01D0BA464AE01546F6E7054BFCF766
:104980002FF8CDE90201BDE7C05A0008985A000887
:104990000000F03F0000244000001C4000001440D4
:1049A0000000E03F069DDDE90267DDE904233046B3
:1049B0003946FCF73FF9FCF7C3FA8146FBF71AFDCD
:1049C000DDE90423FCF70CF802460B463046394675
:1049D000FBF7C2FB09F1300605F8016B069E0246A3
:1049E000AE1BB0450B4635D1FBF7B8FBDDE9042320
:1049F00006460F46FCF784FAC8B9DDE904233046C1
:104A00003946FCF755FA10B119F0010F0FD159468C
:104A1000204600F0C1FA0023209A2B700AF101030E
:104A20001360229B002B3FF4F3AC1D60F0E457466B
:104A300015F8012C6B1E392A06D1069A9A4207D125
:104A400030231370134601371A7801321A7091E738
:104A50001D46EDE70022994BFBF7C2FF0022002321
:104A600006460F46FCF724FA00289ED0CFE7099AA5
:104A7000002A00F088801E9A012A6DDC109A002A14
:104A800066D003F233434D46089E079A01211A442B
:104A900020469944079200F01FFB0746002D0BDDCE
:104AA000079B002B08DDAB42A8BF2B46079AA9EB5A
:104AB0000309ED1AD31A0793089BEBB1099B002B4E
:104AC00065D08EB139463246204600F0A3FB5A46E7
:104AD00001460746204600F008FB59460A9020464A
:104AE00000F05AFA0A9B9B46089B9A1B04D0594631
:104AF000204600F08FFB83460121204600F0ECFAAF
:104B00000C9B0646002B00F0C6811A460146204643
:104B100000F080FB1E9B0646012B3EDC029B002B17
:104B200037D1039BC3F31303002B34D1039B23F032
:104B300000431B0D1B052BB1079B09F10109013334
:104B40000793012308930C9B002B28D101202EE012
:104B5000129BC3F1360396E7089B08F1FF36B34278
:104B6000B7BF089B9E1BF21A0C9BBFBF08969B18F1
:104B70000C930026B8F1000FB9BFA9EB080500237C
:104B80004D46434681E7089E4D46099F86E7089AB1
:104B9000ADE70023D6E7029BD4E7002308933369EF
:104BA00006EB8303186900F049FAC0F12000079B67
:104BB000184410F01F0047D0C0F12003042B3BDD48
:104BC000079BC0F11C008144054403440793B9F1DD
:104BD000000F05DD59464A46204600F069FB834632
:104BE000079B002B05DD31461A46204600F060FB8E
:104BF00006460D9B53B33146584600F0ADFB0028E6
:104C000024DA002359460A22204600F0DCF9099BE9
:104C10000AF1FF3A8346002B00F044810023394615
:104C20000A22204600F0CFF9049B0746002B4DDCFA
:104C30001E9B022B4ADD11E0C9D0079A1C331A448F
:104C400099441D441346C1E70346F6E7B8F1000F47
:104C500036DC1E9B022B33DDCDF81080049B63B93C
:104C600031460522204600F0AEF901460646584678
:104C700000F072FB00283FF7D3AD1F9B069D6FEA43
:104C8000030A4FF000093146204600F085F9002F55
:104C90003FF4BDAEB9F1000F05D0B94503D0494688
:104CA000204600F079F93946204600F075F9AEE665
:104CB00000263746E1E7BA463746B1E50000244012
:104CC000099BCDF81080002B00F0F380002D05DD4E
:104CD00039462A46204600F0EBFA0746089B002B8F
:104CE0004CD07968204600F023F905463A6907F16F
:104CF0000C01023292000C30FEF730FE01222946F0
:104D0000204600F0D5FAB9460746069B0793029B5A
:104D100003F00103089331465846FFF7A1FA4946CC
:104D2000054600F13008584600F016FB3A4602905E
:104D30003146204600F02AFBC368024603BB014609
:104D40000990584600F008FB0346099A1146204690
:104D5000099300F021F9099BA3B91E9A92B9089A08
:104D600082B9B8F1390F29D0029B002B01DD05F182
:104D70003108079B5D1C83F8008084E73846C2E752
:104D80000123E3E7029A002A04DB23D11E9A0ABB1F
:104D9000089AFAB9002BECDD59460122204600F0B2
:104DA00087FA3146834600F0D7FA002803DCE0D1C9
:104DB00018F0010FDDD0B8F1390FD8D1079B079A51
:104DC0005D1C3923137015F8013C6A1E392B4DD038
:104DD000013352E0079A002B02F1010506DDB8F11C
:104DE000390FEBD008F10108079BC4E7069B049A32
:104DF000EB1A934205F8018C21D0594600230A2270
:104E0000204600F0E0F8B94583464FF000034FF02C
:104E10000A024946204605D100F0D5F881460746EA
:104E2000079578E700F0CFF83946814600230A223B
:104E3000204600F0C8F80746F2E74FF0000959464F
:104E40000122204600F034FA3146834600F084FA0D
:104E50000028B8DC02D118F0010FB4D115F8013CDC
:104E60006A1E302B7FF40FAF1546F7E7069B93427F
:104E700005D13123069A0AF1010A137003E715469A
:104E8000A1E7174BFFF7E1BA229B002B7FF4BBAAE7
:104E9000144BFFF7DABA1E9B012B7FF73FAE0C9B3A
:104EA000089353E6049B002B03DC1E9B022B3FF769
:104EB000D5AE069D31465846FFF7D2F9069B00F164
:104EC000300805F8018B049AEB1A9A42B5DD594671
:104ED00000230A22204600F076F88346EAE700BF66
:104EE000645A0008885A0008044B1B68186A044B6F
:104EF000002808BF1846F030704700BF1800002097
:104F00007C000020024B0146186800F047BB00BF40
:104F10001800002010B5C9B202449042034601D1E6
:104F2000002303E01C7801308C42F6D1184610BDF6
:104F300070B5456A04460E463DB91020FFF7E2FF02
:104F40006062C0E901550560C560656AEB6883B1C0
:104F5000636ADB6853F82600B8B9012101FA06F547
:104F60006A1D9200204600F0BEFA60B1C0E90165FA
:104F70000EE021220421204600F0B5FA636AE860C1
:104F8000DB68002BE4D1002070BD026843F82620C6
:104F90000023C0E90333F7E770B5446A06460D46BF
:104FA0003CB91020FFF7AEFF7062C0E90144046015
:104FB000C4603DB1736A6A68DB6853F822102960E7
:104FC00043F8225070BD2DE9F0411F4606460C46BD
:104FD00000230D6901F1140CDCF80000013381B2EB
:104FE00002FB0171000C0F0C02FB007089B201EB97
:104FF00000419D424FEA10474CF8041BECDCD7B14E
:10500000A368AB4212DC616830460131FFF790FFC4
:105010008046226904F10C01023292000C30FEF746
:105020009DFC21463046FFF7B7FF444604EB85035D
:1050300001355F6125612046BDE8F081020C120454
:105040000346B2B90304102013F07F4F04BF1B02C4
:10505000083013F0704F04BF1B01043013F0404FB1
:1050600004BF9B000230002B06DB5B0003D5013040
:1050700070470020E8E7202070470368014613F0DE
:1050800007020BD0DA0723D4980749BF5B089B08B7
:1050900001200B605CBF0B600220704798B2A8B97A
:1050A00010201B0C13F0FF0F04BF1B0A08301A0757
:1050B00004BF1B0904309A0704BF9B080230DA07BB
:1050C00002D45B0806D001300B6070471046E9E758
:1050D000002070472020704710B50C460121FFF7D3
:1050E00027FF01224461026110BD2DE9F74F1446EC
:1050F0000A69236988469A42BEBF0B46A0461C46F1
:10510000D8F81070D4F81090D8F80830D8F80410F7
:1051100007EB0906B342B8BF0131FFF709FF00F101
:1051200014052B46002205EB860E734516D304F1B9
:10513000140208F1140102EB890301EB87070093C5
:10514000009B019293420CD8002E03DD5EF8043DD3
:10515000002B5DD0066103B0BDE8F08F43F8042B4F
:10516000E3E7B2F800B0BBF1000F23D08946AC46AC
:105170004FF0000859F8044BDCF800A0A3B21FFA66
:105180008AFA0BFB03A34FEA144ADCF800404344BD
:105190004FEA14480BFB0A84E24604EB13449BB22B
:1051A00043EA04434F454FEA14484AF8043B2BD8DE
:1051B000CCF80480019B0432B3F802A0BAF1000FCE
:1051C00020D08946A8464FF0000B2B68B9F800C0E4
:1051D000B8F802409BB20AFB0C44C4465C4443EA64
:1051E00004434CF8043B59F8043BB8F804B01B0CDA
:1051F0000AFB03B34F4503EB14434FEA134B05D8A7
:10520000C8F8043004359BE7D446B3E7E046DDE751
:10521000013E99E72DE9F843154612F003020646D0
:105220000F4607D0214C013A002354F82220FFF703
:10523000CAFE0746AD1035D0746A3CB91020FFF79E
:1052400061FE7062C0E901440460C460D6F8248045
:10525000D8F808404CB940F271213046FFF73CFFC6
:1052600000230446C8F8080003604FF00008EB076D
:105270000AD5394622463046FFF737FF8146394680
:105280003046FFF789FE4F466D100BD0206838B9C5
:10529000224621463046FFF728FF2060C0F80080F4
:1052A0000446E4E73846BDE8F88300BF885B0008A1
:1052B0002DE9F0470C460746164623694FEA621A65
:1052C0000AEB03094968A36809F10105AB4232DB27
:1052D0003846FFF72DFE002380461A4600F11401E0
:1052E00053452BDB20692AEAEA7A04F1140316F00D
:1052F0001F0201EB8A0103EB800C25D00020C2F1D4
:10530000200E8A461E68964030434AF8040B53F834
:10531000040B9C4520FA0EF014D8486008B109F13E
:105320000205013D3846C8F810502146FFF734FE0B
:105330004046BDE8F08701315B00C7E741F8232014
:105340000133CDE75146DCE7043953F8042B9C4583
:1053500041F8042FF9D8E4E703690A6930B59B1ACC
:105360000CD19200143014318418114454F8045DA7
:1053700051F8042D954203D005D30123184630BDC2
:10538000A042F3D3FAE74FF0FF33F7E72DE9F047F8
:105390000D460746114628461446FFF7DDFF061E58
:1053A00008D131463846FFF7C3FD0123C0E9043672
:1053B000BDE8F087A4BF23462C4638466168A6BFE7
:1053C0001D4600260126FFF7B3FD4FF0000EC66014
:1053D0002B69266904F1140205F1140902EB860712
:1053E00009EB830800F1140152F804AB59F8045B8F
:1053F0001FFA8AF37344ACB21B1B2C0CC4EB1A4487
:1054000004EB23449BB24FEA244EC84543EA0444CC
:10541000944641F8044BE7D8BC4504D351F8043D09
:1054200083B10661C4E75CF8044BA2B27244131462
:1054300003EB144392B242EA03424FEA234E41F88F
:10544000042BE9E7013EE9E72DE9F3411C46DDE9DC
:10545000086501219046FFF76BFDC4F31302C4F306
:105460000A54074634BB0192B8F1000227D002A8C3
:1054700040F8082DFFF701FE0099F0B1019AC0F144
:10548000200302FA03F30B43C2407B610192019BAC
:10549000002B14BF02210121BB613961C4B1A4F208
:1054A000334404443460C0F135002860384602B00B
:1054B000BDE8F08142F48012D5E77961E7E701A801
:1054C000FFF7DBFD0121019B39617B612030E5E7BE
:1054D000A0F2324007EB810330601869FFF7AEFDA0
:1054E000C0EB4110E1E738B502FB01F4214600F0C2
:1054F00055F8054618B122460021FEF73AFA28462B
:1055000038BD000038B50546002943D051F8043CA9
:105510000C1F002BB8BFE41800F025FA1E4A1368D0
:10552000104633B9636014602846BDE8384000F087
:105530001BBAA3420BD921686218934201BF1A68B3
:105540005B685218226063600460EDE713465A6896
:105550000AB1A242FAD919685818A0420BD12068A2
:105560000144581882421960DED110685268014423
:1055700019605A60D8E702D90C232B60D4E7206861
:1055800021188A4201BF11685268091821606260BF
:105590005C60C9E738BD00BF1002002070B5CD1CAB
:1055A00025F0030508350C2D38BF0C25002D0646C7
:1055B00001DBA94203D90C233360002070BD00F049
:1055C000D2F9214A1468214691B9204C23681BB9AD
:1055D000304600F08DF920602946304600F088F909
:1055E000431C24D10C233046336000F0BDF9E4E7BE
:1055F0000B685B1B18D40B2B0FD90B60CC18CD504C
:10560000304600F0B1F904F10B00231D20F0070033
:10561000C31AD3D05A42E250D0E74B688C4216BF2F
:10562000636013600C46EBE70C464968CCE7C41C8A
:1056300024F00304A04205D0211A304600F058F9A6
:105640000130CFD02560DBE71002002014020020DB
:105650002DE9F0478E6882469E420C469046994658
:1056600037D88A8912F4906F31D0022325680969EE
:105670006F1A656905EB450595FBF3F509F1010323
:105680003B449D4238BF1D46530530D52946FFF7A0
:1056900085FF064650B90C234FF0FF30CAF80030A2
:1056A000A38943F04003A381BDE8F0873A4621690E
:1056B000FEF754F9A38923F4906343F08003A38198
:1056C00026613E4426604E466561ED1BA5604E4551
:1056D00000D94E4632464146206800F02BF9A368B7
:1056E00000209B1BA36023681E442660DCE72A463B
:1056F00000F03BF906460028E2D121695046FFF749
:1057000001FFC8E72DE9F04F9DB003938B898046D8
:105710001D060C4616460FD50B696BB94021FFF7E5
:105720003DFF2060206128B90C23C8F800304FF0FD
:10573000FF30C7E0402363610023099320238DF8E5
:10574000293030234FF0010B8DF82A3037463D4683
:1057500015F8013B0BB1252B3ED1B7EB060A0BD058
:105760005346324621464046FFF772FF013000F0B3
:10577000A480099B534409933B78002B00F09D8043
:1057800000234FF0FF32CDE90523049307938DF8F2
:1057900053301A932F46052217F8011B4F48FFF785
:1057A000B9FB049BD0B9D90644BF20228DF8532001
:1057B0001A0744BF2B228DF853202A782A2A15D0A5
:1057C0002F4600200A25079A394611F8013B303B45
:1057D000092B4DD9B8B10FE02F46B8E73F4A3D46F7
:1057E000801A0BFA00F018430490D3E7039A111DB6
:1057F00012680391002A01DB079204E0524243F051
:105800000203079204933B782E2B0CD17B782A2B32
:1058100033D1039B02371A1D1B680392002BB8BFBC
:105820004FF0FF3305932E4D032239782846FFF7BA
:1058300071FB38B14023401B03FA00F0049B013791
:10584000034304933978062226487E1C8DF82810DD
:10585000FFF760FB002838D0234B13BB039B0733B3
:1058600023F0070308330393099B4B4409936DE727
:1058700005FB023201200F46A6E700230A25194640
:1058800001370593384610F8012B303A092A03D91D
:10589000002BC8D00591C6E705FB0121012307466F
:1058A000F0E703AB00932246104B04A94046FEF7F5
:1058B000F9F8B0F1FF3F8146D6D1A3895B063FF5E9
:1058C00036AF09981DB0BDE8F08F03AB00932246B8
:1058D000064B04A94046FEF791FBEAE7945B0008FB
:1058E0009A5B00089E5B0008A53A00085156000824
:1058F00038B50023054C054608462360FDF77EFFBA
:10590000431C02D1236803B12B6038BD1004002072
:1059100082B001B901A942B14BB113780B60127882
:10592000101C18BF012002B070471046FBE76FF053
:105930000100F8E7884210B501EB020307D8421EC8
:1059400099420AD011F8014B02F8014FF8E783425F
:10595000F5D98118D21AD34200D110BD13F8014DE8
:1059600001F8014DF7E770477047F8B50746144650
:105970000E4621B9BDE8F8401146FFF70FBE22B927
:10598000FFF7C0FD25462846F8BD00F021F8A042EB
:105990000FD221463846FFF701FE05460028F2D017
:1059A00031462246FDF7DAFF31463846FFF7AAFDB9
:1059B000E9E73546E7E749B1FF2A8BBF8A230A703A
:1059C0000360012088BF4FF0FF30704708467047E2
:1059D00051F8043C181F002BBCBF0B58C01870476F
:1059E000F8B500BFF8BC08BC9E467047F8B500BFCC
:0859F000F8BC08BC9E4670479C
:1059F800081C3044586C80000000000004040400B7
:105A0800000008000000080000000800000008006E
:105A180000020406080A0C0000010203040506003F
:105A28006C070000DC0500004C0400009001000039
:105A380025660000000000000000000001020304C9
:105A4800060708090000000001020304494E460049
:105A5800696E66004E414E006E616E003000303156
:105A680032333435363738394142434445460030BD
:105A780031323334353637383961626364656600EC
:105A8800496E66696E697479004E614E00000000C7
:105A98000080E03779C34143176E05B5B5B8934622
:105AA800F5F93FE9034F384D321D30F94877825AEE
:105AB8003CBF737FDD4F1575000000000000F03F0C
:105AC80000000000000024400000000000005940D1
